{
  "contracts/MyContract.sol": {
    "MyContract": {
      "abi": [
        {
          "inputs": [
            {
              "internalType": "string",
              "name": "_name",
              "type": "string"
            }
          ],
          "stateMutability": "nonpayable",
          "type": "constructor"
        },
        {
          "inputs": [],
          "name": "getNfts",
          "outputs": [
            {
              "components": [
                {
                  "internalType": "uint256",
                  "name": "id",
                  "type": "uint256"
                },
                {
                  "internalType": "string",
                  "name": "name",
                  "type": "string"
                },
                {
                  "internalType": "string",
                  "name": "desc",
                  "type": "string"
                },
                {
                  "internalType": "string",
                  "name": "image",
                  "type": "string"
                },
                {
                  "internalType": "uint256",
                  "name": "price",
                  "type": "uint256"
                },
                {
                  "internalType": "address",
                  "name": "owner",
                  "type": "address"
                }
              ],
              "internalType": "struct MyContract.Nft[]",
              "name": "",
              "type": "tuple[]"
            }
          ],
          "stateMutability": "view",
          "type": "function"
        },
        {
          "inputs": [
            {
              "internalType": "uint256",
              "name": "_id",
              "type": "uint256"
            }
          ],
          "name": "mintNft",
          "outputs": [],
          "stateMutability": "payable",
          "type": "function"
        },
        {
          "inputs": [
            {
              "internalType": "uint256",
              "name": "",
              "type": "uint256"
            }
          ],
          "name": "nfts",
          "outputs": [
            {
              "internalType": "uint256",
              "name": "id",
              "type": "uint256"
            },
            {
              "internalType": "string",
              "name": "name",
              "type": "string"
            },
            {
              "internalType": "string",
              "name": "desc",
              "type": "string"
            },
            {
              "internalType": "string",
              "name": "image",
              "type": "string"
            },
            {
              "internalType": "uint256",
              "name": "price",
              "type": "uint256"
            },
            {
              "internalType": "address",
              "name": "owner",
              "type": "address"
            }
          ],
          "stateMutability": "view",
          "type": "function"
        }
      ],
      "evm": {
        "bytecode": {
          "linkReferences": {},
          "object": "60806040523480156200001157600080fd5b5060405162001d9d38038062001d9d833981810160405281019062000037919062000c1a565b60006040518060c00160405280600081526020016040518060400160405280600981526020017f42756c626173617572000000000000000000000000000000000000000000000081525081526020016040518060a0016040528060678152602001620019d96067913981526020016040518060600160405280603f815260200162001c43603f91398152602001655af3107a40008152602001600073ffffffffffffffffffffffffffffffffffffffff1681525090806001815401808255809150506001900390600052602060002090600602016000909190919091506000820151816000015560208201518160010190805190602001906200013c929190620009cd565b5060408201518160020190805190602001906200015b929190620009cd565b5060608201518160030190805190602001906200017a929190620009cd565b506080820151816004015560a08201518160050160006101000a81548173ffffffffffffffffffffffffffffffffffffffff021916908373ffffffffffffffffffffffffffffffffffffffff160217905550505060006040518060c00160405280600181526020016040518060400160405280600a81526020017f436861726d616e6465720000000000000000000000000000000000000000000081525081526020016040518060a001604052806063815260200162001a406063913981526020016040518060600160405280603f815260200162001d1f603f9139815260200166071afd498d00008152602001600073ffffffffffffffffffffffffffffffffffffffff168152509080600181540180825580915050600190039060005260206000209060060201600090919091909150600082015181600001556020820151816001019080519060200190620002d4929190620009cd565b506040820151816002019080519060200190620002f3929190620009cd565b50606082015181600301908051906020019062000312929190620009cd565b506080820151816004015560a08201518160050160006101000a81548173ffffffffffffffffffffffffffffffffffffffff021916908373ffffffffffffffffffffffffffffffffffffffff160217905550505060006040518060c00160405280600281526020016040518060400160405280600881526020017f5371756972746c65000000000000000000000000000000000000000000000000815250815260200160405180608001604052806057815260200162001b086057913981526020016040518060600160405280603f815260200162001ce0603f91398152602001662386f26fc100008152602001600073ffffffffffffffffffffffffffffffffffffffff1681525090806001815401808255809150506001900390600052602060002090600602016000909190919091506000820151816000015560208201518160010190805190602001906200046c929190620009cd565b5060408201518160020190805190602001906200048b929190620009cd565b506060820151816003019080519060200190620004aa929190620009cd565b506080820151816004015560a08201518160050160006101000a81548173ffffffffffffffffffffffffffffffffffffffff021916908373ffffffffffffffffffffffffffffffffffffffff160217905550505060006040518060c00160405280600381526020016040518060400160405280600681526020017f506964676579000000000000000000000000000000000000000000000000000081525081526020016040518060800160405280605e815260200162001c82605e913981526020016040518060600160405280603f815260200162001c04603f91398152602001662386f26fc100008152602001600073ffffffffffffffffffffffffffffffffffffffff16815250908060018154018082558091505060019003906000526020600020906006020160009091909190915060008201518160000155602082015181600101908051906020019062000604929190620009cd565b50604082015181600201908051906020019062000623929190620009cd565b50606082015181600301908051906020019062000642929190620009cd565b506080820151816004015560a08201518160050160006101000a81548173ffffffffffffffffffffffffffffffffffffffff021916908373ffffffffffffffffffffffffffffffffffffffff160217905550505060006040518060c00160405280600481526020016040518060400160405280600581526020017f456b616e7300000000000000000000000000000000000000000000000000000081525081526020016040518060a001604052806065815260200162001aa36065913981526020016040518060600160405280603f815260200162001d5e603f91398152602001666a94d74f4300008152602001600073ffffffffffffffffffffffffffffffffffffffff1681525090806001815401808255809150506001900390600052602060002090600602016000909190919091506000820151816000015560208201518160010190805190602001906200079c929190620009cd565b506040820151816002019080519060200190620007bb929190620009cd565b506060820151816003019080519060200190620007da929190620009cd565b506080820151816004015560a08201518160050160006101000a81548173ffffffffffffffffffffffffffffffffffffffff021916908373ffffffffffffffffffffffffffffffffffffffff160217905550505060006040518060c00160405280600581526020016040518060400160405280600781526020017f50696b616368750000000000000000000000000000000000000000000000000081525081526020016040518060a001604052806066815260200162001b9e6066913981526020016040518060600160405280603f815260200162001b5f603f9139815260200166b1a2bc2ec500008152602001600073ffffffffffffffffffffffffffffffffffffffff16815250908060018154018082558091505060019003906000526020600020906006020160009091909190915060008201518160000155602082015181600101908051906020019062000934929190620009cd565b50604082015181600201908051906020019062000953929190620009cd565b50606082015181600301908051906020019062000972929190620009cd565b506080820151816004015560a08201518160050160006101000a81548173ffffffffffffffffffffffffffffffffffffffff021916908373ffffffffffffffffffffffffffffffffffffffff16021790555050505062000cd0565b828054620009db9062000c9a565b90600052602060002090601f016020900481019282620009ff576000855562000a4b565b82601f1062000a1a57805160ff191683800117855562000a4b565b8280016001018555821562000a4b579182015b8281111562000a4a57825182559160200191906001019062000a2d565b5b50905062000a5a919062000a5e565b5090565b5b8082111562000a7957600081600090555060010162000a5f565b5090565b6000604051905090565b600080fd5b600080fd5b600080fd5b600080fd5b6000601f19601f8301169050919050565b7f4e487b7100000000000000000000000000000000000000000000000000000000600052604160045260246000fd5b62000ae68262000a9b565b810181811067ffffffffffffffff8211171562000b085762000b0762000aac565b5b80604052505050565b600062000b1d62000a7d565b905062000b2b828262000adb565b919050565b600067ffffffffffffffff82111562000b4e5762000b4d62000aac565b5b62000b598262000a9b565b9050602081019050919050565b60005b8381101562000b8657808201518184015260208101905062000b69565b8381111562000b96576000848401525b50505050565b600062000bb362000bad8462000b30565b62000b11565b90508281526020810184848401111562000bd25762000bd162000a96565b5b62000bdf84828562000b66565b509392505050565b600082601f83011262000bff5762000bfe62000a91565b5b815162000c1184826020860162000b9c565b91505092915050565b60006020828403121562000c335762000c3262000a87565b5b600082015167ffffffffffffffff81111562000c545762000c5362000a8c565b5b62000c628482850162000be7565b91505092915050565b7f4e487b7100000000000000000000000000000000000000000000000000000000600052602260045260246000fd5b6000600282049050600182168062000cb357607f821691505b6020821081141562000cca5762000cc962000c6b565b5b50919050565b610cf98062000ce06000396000f3fe6080604052600436106100345760003560e01c80630d730acc14610039578063265aa62114610055578063d8cb55e314610097575b600080fd5b610053600480360381019061004e9190610763565b6100c2565b005b34801561006157600080fd5b5061007c60048036038101906100779190610763565b6102a5565b60405161008e96959493929190610879565b60405180910390f35b3480156100a357600080fd5b506100ac6104a9565b6040516100b99190610ab0565b60405180910390f35b60008082815481106100d7576100d6610ad2565b5b90600052602060002090600602019050806004015434101561012e576040517f08c379a000000000000000000000000000000000000000000000000000000000815260040161012590610b4d565b60405180910390fd5b6000828154811061014257610141610ad2565b5b906000526020600020906006020160050160009054906101000a900473ffffffffffffffffffffffffffffffffffffffff1673ffffffffffffffffffffffffffffffffffffffff163373ffffffffffffffffffffffffffffffffffffffff1614156101e2576040517f08c379a00000000000000000000000000000000000000000000000000000000081526004016101d990610bb9565b60405180910390fd5b33600083815481106101f7576101f6610ad2565b5b906000526020600020906006020160050160006101000a81548173ffffffffffffffffffffffffffffffffffffffff021916908373ffffffffffffffffffffffffffffffffffffffff16021790555060026000838154811061025c5761025b610ad2565b5b9060005260206000209060060201600401546102789190610c08565b6000838154811061028c5761028b610ad2565b5b9060005260206000209060060201600401819055505050565b600081815481106102b557600080fd5b90600052602060002090600602016000915090508060000154908060010180546102de90610c91565b80601f016020809104026020016040519081016040528092919081815260200182805461030a90610c91565b80156103575780601f1061032c57610100808354040283529160200191610357565b820191906000526020600020905b81548152906001019060200180831161033a57829003601f168201915b50505050509080600201805461036c90610c91565b80601f016020809104026020016040519081016040528092919081815260200182805461039890610c91565b80156103e55780601f106103ba576101008083540402835291602001916103e5565b820191906000526020600020905b8154815290600101906020018083116103c857829003601f168201915b5050505050908060030180546103fa90610c91565b80601f016020809104026020016040519081016040528092919081815260200182805461042690610c91565b80156104735780601f1061044857610100808354040283529160200191610473565b820191906000526020600020905b81548152906001019060200180831161045657829003601f168201915b5050505050908060040154908060050160009054906101000a900473ffffffffffffffffffffffffffffffffffffffff16905086565b60606000805480602002602001604051908101604052809291908181526020016000905b8282101561071f57838290600052602060002090600602016040518060c00160405290816000820154815260200160018201805461050a90610c91565b80601f016020809104026020016040519081016040528092919081815260200182805461053690610c91565b80156105835780601f1061055857610100808354040283529160200191610583565b820191906000526020600020905b81548152906001019060200180831161056657829003601f168201915b5050505050815260200160028201805461059c90610c91565b80601f01602080910402602001604051908101604052809291908181526020018280546105c890610c91565b80156106155780601f106105ea57610100808354040283529160200191610615565b820191906000526020600020905b8154815290600101906020018083116105f857829003601f168201915b5050505050815260200160038201805461062e90610c91565b80601f016020809104026020016040519081016040528092919081815260200182805461065a90610c91565b80156106a75780601f1061067c576101008083540402835291602001916106a7565b820191906000526020600020905b81548152906001019060200180831161068a57829003601f168201915b50505050508152602001600482015481526020016005820160009054906101000a900473ffffffffffffffffffffffffffffffffffffffff1673ffffffffffffffffffffffffffffffffffffffff1673ffffffffffffffffffffffffffffffffffffffff1681525050815260200190600101906104cd565b50505050905090565b600080fd5b6000819050919050565b6107408161072d565b811461074b57600080fd5b50565b60008135905061075d81610737565b92915050565b60006020828403121561077957610778610728565b5b60006107878482850161074e565b91505092915050565b6107998161072d565b82525050565b600081519050919050565b600082825260208201905092915050565b60005b838110156107d95780820151818401526020810190506107be565b838111156107e8576000848401525b50505050565b6000601f19601f8301169050919050565b600061080a8261079f565b61081481856107aa565b93506108248185602086016107bb565b61082d816107ee565b840191505092915050565b600073ffffffffffffffffffffffffffffffffffffffff82169050919050565b600061086382610838565b9050919050565b61087381610858565b82525050565b600060c08201905061088e6000830189610790565b81810360208301526108a081886107ff565b905081810360408301526108b481876107ff565b905081810360608301526108c881866107ff565b90506108d76080830185610790565b6108e460a083018461086a565b979650505050505050565b600081519050919050565b600082825260208201905092915050565b6000819050602082019050919050565b6109248161072d565b82525050565b600082825260208201905092915050565b60006109468261079f565b610950818561092a565b93506109608185602086016107bb565b610969816107ee565b840191505092915050565b61097d81610858565b82525050565b600060c08301600083015161099b600086018261091b565b50602083015184820360208601526109b3828261093b565b915050604083015184820360408601526109cd828261093b565b915050606083015184820360608601526109e7828261093b565b91505060808301516109fc608086018261091b565b5060a0830151610a0f60a0860182610974565b508091505092915050565b6000610a268383610983565b905092915050565b6000602082019050919050565b6000610a46826108ef565b610a5081856108fa565b935083602082028501610a628561090b565b8060005b85811015610a9e5784840389528151610a7f8582610a1a565b9450610a8a83610a2e565b925060208a01995050600181019050610a66565b50829750879550505050505092915050565b60006020820190508181036000830152610aca8184610a3b565b905092915050565b7f4e487b7100000000000000000000000000000000000000000000000000000000600052603260045260246000fd5b7f4e65656420746f20706179207570210000000000000000000000000000000000600082015250565b6000610b37600f836107aa565b9150610b4282610b01565b602082019050919050565b60006020820190508181036000830152610b6681610b2a565b9050919050565b7f596f7520616c7265616479206861766520697421000000000000000000000000600082015250565b6000610ba36014836107aa565b9150610bae82610b6d565b602082019050919050565b60006020820190508181036000830152610bd281610b96565b9050919050565b7f4e487b7100000000000000000000000000000000000000000000000000000000600052601160045260246000fd5b6000610c138261072d565b9150610c1e8361072d565b9250817fffffffffffffffffffffffffffffffffffffffffffffffffffffffffffffffff0483118215151615610c5757610c56610bd9565b5b828202905092915050565b7f4e487b7100000000000000000000000000000000000000000000000000000000600052602260045260246000fd5b60006002820490506001821680610ca957607f821691505b60208210811415610cbd57610cbc610c62565b5b5091905056fea26469706673582212205b22183efad738ed00d162c1674aca4d25efc9d8e9e8774f4816029c0f37040a64736f6c634300080900335468657265206973206120706c616e742073656564206f6e20697473206261636b2072696768742066726f6d2074686520646179207468697320506f6b656d6f6e20697320626f726e2e20546865207365656420736c6f776c792067726f7773206c6172676572497420686173206120707265666572656e636520666f7220686f74207468696e67732e205768656e206974207261696e732c20737465616d206973207361696420746f2073706f75742066726f6d2074686520746970206f6620697473207461696c2e546865206f6c64657220697420676574732c20746865206c6f6e6765722069742067726f77732e204174206e696768742c20697420777261707320697473206c6f6e6720626f64792061726f756e642074726565206272616e6368657320746f20726573745768656e20697420726574726163747320697473206c6f6e67206e65636b20696e746f20697473207368656c6c2c2069742073717569727473206f75742077617465722077697468207669676f726f757320666f72636568747470733a2f2f6173736574732e706f6b656d6f6e2e636f6d2f6173736574732f636d73322f696d672f706f6b656465782f66756c6c2f3032352e706e6750696b6163687520746861742063616e2067656e657261746520706f77657266756c20656c656374726963697479206861766520636865656b207361637320746861742061726520657874726120736f667420616e642073757065722073747265746368792e68747470733a2f2f6173736574732e706f6b656d6f6e2e636f6d2f6173736574732f636d73322f696d672f706f6b656465782f66756c6c2f3031362e706e6768747470733a2f2f6173736574732e706f6b656d6f6e2e636f6d2f6173736574732f636d73322f696d672f706f6b656465782f66756c6c2f3030312e706e675665727920646f63696c652e2049662061747461636b65642c2069742077696c6c206f6674656e206b69636b2075702073616e6420746f2070726f7465637420697473656c6620726174686572207468616e206669676874206261636b2e68747470733a2f2f6173736574732e706f6b656d6f6e2e636f6d2f6173736574732f636d73322f696d672f706f6b656465782f66756c6c2f3030372e706e6768747470733a2f2f6173736574732e706f6b656d6f6e2e636f6d2f6173736574732f636d73322f696d672f706f6b656465782f66756c6c2f3030342e706e6768747470733a2f2f6173736574732e706f6b656d6f6e2e636f6d2f6173736574732f636d73322f696d672f706f6b656465782f66756c6c2f3032332e706e67",
          "opcodes": "PUSH1 0x80 PUSH1 0x40 MSTORE CALLVALUE DUP1 ISZERO PUSH3 0x11 JUMPI PUSH1 0x0 DUP1 REVERT JUMPDEST POP PUSH1 0x40 MLOAD PUSH3 0x1D9D CODESIZE SUB DUP1 PUSH3 0x1D9D DUP4 CODECOPY DUP2 DUP2 ADD PUSH1 0x40 MSTORE DUP2 ADD SWAP1 PUSH3 0x37 SWAP2 SWAP1 PUSH3 0xC1A JUMP JUMPDEST PUSH1 0x0 PUSH1 0x40 MLOAD DUP1 PUSH1 0xC0 ADD PUSH1 0x40 MSTORE DUP1 PUSH1 0x0 DUP2 MSTORE PUSH1 0x20 ADD PUSH1 0x40 MLOAD DUP1 PUSH1 0x40 ADD PUSH1 0x40 MSTORE DUP1 PUSH1 0x9 DUP2 MSTORE PUSH1 0x20 ADD PUSH32 0x42756C6261736175720000000000000000000000000000000000000000000000 DUP2 MSTORE POP DUP2 MSTORE PUSH1 0x20 ADD PUSH1 0x40 MLOAD DUP1 PUSH1 0xA0 ADD PUSH1 0x40 MSTORE DUP1 PUSH1 0x67 DUP2 MSTORE PUSH1 0x20 ADD PUSH3 0x19D9 PUSH1 0x67 SWAP2 CODECOPY DUP2 MSTORE PUSH1 0x20 ADD PUSH1 0x40 MLOAD DUP1 PUSH1 0x60 ADD PUSH1 0x40 MSTORE DUP1 PUSH1 0x3F DUP2 MSTORE PUSH1 0x20 ADD PUSH3 0x1C43 PUSH1 0x3F SWAP2 CODECOPY DUP2 MSTORE PUSH1 0x20 ADD PUSH6 0x5AF3107A4000 DUP2 MSTORE PUSH1 0x20 ADD PUSH1 0x0 PUSH20 0xFFFFFFFFFFFFFFFFFFFFFFFFFFFFFFFFFFFFFFFF AND DUP2 MSTORE POP SWAP1 DUP1 PUSH1 0x1 DUP2 SLOAD ADD DUP1 DUP3 SSTORE DUP1 SWAP2 POP POP PUSH1 0x1 SWAP1 SUB SWAP1 PUSH1 0x0 MSTORE PUSH1 0x20 PUSH1 0x0 KECCAK256 SWAP1 PUSH1 0x6 MUL ADD PUSH1 0x0 SWAP1 SWAP2 SWAP1 SWAP2 SWAP1 SWAP2 POP PUSH1 0x0 DUP3 ADD MLOAD DUP2 PUSH1 0x0 ADD SSTORE PUSH1 0x20 DUP3 ADD MLOAD DUP2 PUSH1 0x1 ADD SWAP1 DUP1 MLOAD SWAP1 PUSH1 0x20 ADD SWAP1 PUSH3 0x13C SWAP3 SWAP2 SWAP1 PUSH3 0x9CD JUMP JUMPDEST POP PUSH1 0x40 DUP3 ADD MLOAD DUP2 PUSH1 0x2 ADD SWAP1 DUP1 MLOAD SWAP1 PUSH1 0x20 ADD SWAP1 PUSH3 0x15B SWAP3 SWAP2 SWAP1 PUSH3 0x9CD JUMP JUMPDEST POP PUSH1 0x60 DUP3 ADD MLOAD DUP2 PUSH1 0x3 ADD SWAP1 DUP1 MLOAD SWAP1 PUSH1 0x20 ADD SWAP1 PUSH3 0x17A SWAP3 SWAP2 SWAP1 PUSH3 0x9CD JUMP JUMPDEST POP PUSH1 0x80 DUP3 ADD MLOAD DUP2 PUSH1 0x4 ADD SSTORE PUSH1 0xA0 DUP3 ADD MLOAD DUP2 PUSH1 0x5 ADD PUSH1 0x0 PUSH2 0x100 EXP DUP2 SLOAD DUP2 PUSH20 0xFFFFFFFFFFFFFFFFFFFFFFFFFFFFFFFFFFFFFFFF MUL NOT AND SWAP1 DUP4 PUSH20 0xFFFFFFFFFFFFFFFFFFFFFFFFFFFFFFFFFFFFFFFF AND MUL OR SWAP1 SSTORE POP POP POP PUSH1 0x0 PUSH1 0x40 MLOAD DUP1 PUSH1 0xC0 ADD PUSH1 0x40 MSTORE DUP1 PUSH1 0x1 DUP2 MSTORE PUSH1 0x20 ADD PUSH1 0x40 MLOAD DUP1 PUSH1 0x40 ADD PUSH1 0x40 MSTORE DUP1 PUSH1 0xA DUP2 MSTORE PUSH1 0x20 ADD PUSH32 0x436861726D616E64657200000000000000000000000000000000000000000000 DUP2 MSTORE POP DUP2 MSTORE PUSH1 0x20 ADD PUSH1 0x40 MLOAD DUP1 PUSH1 0xA0 ADD PUSH1 0x40 MSTORE DUP1 PUSH1 0x63 DUP2 MSTORE PUSH1 0x20 ADD PUSH3 0x1A40 PUSH1 0x63 SWAP2 CODECOPY DUP2 MSTORE PUSH1 0x20 ADD PUSH1 0x40 MLOAD DUP1 PUSH1 0x60 ADD PUSH1 0x40 MSTORE DUP1 PUSH1 0x3F DUP2 MSTORE PUSH1 0x20 ADD PUSH3 0x1D1F PUSH1 0x3F SWAP2 CODECOPY DUP2 MSTORE PUSH1 0x20 ADD PUSH7 0x71AFD498D0000 DUP2 MSTORE PUSH1 0x20 ADD PUSH1 0x0 PUSH20 0xFFFFFFFFFFFFFFFFFFFFFFFFFFFFFFFFFFFFFFFF AND DUP2 MSTORE POP SWAP1 DUP1 PUSH1 0x1 DUP2 SLOAD ADD DUP1 DUP3 SSTORE DUP1 SWAP2 POP POP PUSH1 0x1 SWAP1 SUB SWAP1 PUSH1 0x0 MSTORE PUSH1 0x20 PUSH1 0x0 KECCAK256 SWAP1 PUSH1 0x6 MUL ADD PUSH1 0x0 SWAP1 SWAP2 SWAP1 SWAP2 SWAP1 SWAP2 POP PUSH1 0x0 DUP3 ADD MLOAD DUP2 PUSH1 0x0 ADD SSTORE PUSH1 0x20 DUP3 ADD MLOAD DUP2 PUSH1 0x1 ADD SWAP1 DUP1 MLOAD SWAP1 PUSH1 0x20 ADD SWAP1 PUSH3 0x2D4 SWAP3 SWAP2 SWAP1 PUSH3 0x9CD JUMP JUMPDEST POP PUSH1 0x40 DUP3 ADD MLOAD DUP2 PUSH1 0x2 ADD SWAP1 DUP1 MLOAD SWAP1 PUSH1 0x20 ADD SWAP1 PUSH3 0x2F3 SWAP3 SWAP2 SWAP1 PUSH3 0x9CD JUMP JUMPDEST POP PUSH1 0x60 DUP3 ADD MLOAD DUP2 PUSH1 0x3 ADD SWAP1 DUP1 MLOAD SWAP1 PUSH1 0x20 ADD SWAP1 PUSH3 0x312 SWAP3 SWAP2 SWAP1 PUSH3 0x9CD JUMP JUMPDEST POP PUSH1 0x80 DUP3 ADD MLOAD DUP2 PUSH1 0x4 ADD SSTORE PUSH1 0xA0 DUP3 ADD MLOAD DUP2 PUSH1 0x5 ADD PUSH1 0x0 PUSH2 0x100 EXP DUP2 SLOAD DUP2 PUSH20 0xFFFFFFFFFFFFFFFFFFFFFFFFFFFFFFFFFFFFFFFF MUL NOT AND SWAP1 DUP4 PUSH20 0xFFFFFFFFFFFFFFFFFFFFFFFFFFFFFFFFFFFFFFFF AND MUL OR SWAP1 SSTORE POP POP POP PUSH1 0x0 PUSH1 0x40 MLOAD DUP1 PUSH1 0xC0 ADD PUSH1 0x40 MSTORE DUP1 PUSH1 0x2 DUP2 MSTORE PUSH1 0x20 ADD PUSH1 0x40 MLOAD DUP1 PUSH1 0x40 ADD PUSH1 0x40 MSTORE DUP1 PUSH1 0x8 DUP2 MSTORE PUSH1 0x20 ADD PUSH32 0x5371756972746C65000000000000000000000000000000000000000000000000 DUP2 MSTORE POP DUP2 MSTORE PUSH1 0x20 ADD PUSH1 0x40 MLOAD DUP1 PUSH1 0x80 ADD PUSH1 0x40 MSTORE DUP1 PUSH1 0x57 DUP2 MSTORE PUSH1 0x20 ADD PUSH3 0x1B08 PUSH1 0x57 SWAP2 CODECOPY DUP2 MSTORE PUSH1 0x20 ADD PUSH1 0x40 MLOAD DUP1 PUSH1 0x60 ADD PUSH1 0x40 MSTORE DUP1 PUSH1 0x3F DUP2 MSTORE PUSH1 0x20 ADD PUSH3 0x1CE0 PUSH1 0x3F SWAP2 CODECOPY DUP2 MSTORE PUSH1 0x20 ADD PUSH7 0x2386F26FC10000 DUP2 MSTORE PUSH1 0x20 ADD PUSH1 0x0 PUSH20 0xFFFFFFFFFFFFFFFFFFFFFFFFFFFFFFFFFFFFFFFF AND DUP2 MSTORE POP SWAP1 DUP1 PUSH1 0x1 DUP2 SLOAD ADD DUP1 DUP3 SSTORE DUP1 SWAP2 POP POP PUSH1 0x1 SWAP1 SUB SWAP1 PUSH1 0x0 MSTORE PUSH1 0x20 PUSH1 0x0 KECCAK256 SWAP1 PUSH1 0x6 MUL ADD PUSH1 0x0 SWAP1 SWAP2 SWAP1 SWAP2 SWAP1 SWAP2 POP PUSH1 0x0 DUP3 ADD MLOAD DUP2 PUSH1 0x0 ADD SSTORE PUSH1 0x20 DUP3 ADD MLOAD DUP2 PUSH1 0x1 ADD SWAP1 DUP1 MLOAD SWAP1 PUSH1 0x20 ADD SWAP1 PUSH3 0x46C SWAP3 SWAP2 SWAP1 PUSH3 0x9CD JUMP JUMPDEST POP PUSH1 0x40 DUP3 ADD MLOAD DUP2 PUSH1 0x2 ADD SWAP1 DUP1 MLOAD SWAP1 PUSH1 0x20 ADD SWAP1 PUSH3 0x48B SWAP3 SWAP2 SWAP1 PUSH3 0x9CD JUMP JUMPDEST POP PUSH1 0x60 DUP3 ADD MLOAD DUP2 PUSH1 0x3 ADD SWAP1 DUP1 MLOAD SWAP1 PUSH1 0x20 ADD SWAP1 PUSH3 0x4AA SWAP3 SWAP2 SWAP1 PUSH3 0x9CD JUMP JUMPDEST POP PUSH1 0x80 DUP3 ADD MLOAD DUP2 PUSH1 0x4 ADD SSTORE PUSH1 0xA0 DUP3 ADD MLOAD DUP2 PUSH1 0x5 ADD PUSH1 0x0 PUSH2 0x100 EXP DUP2 SLOAD DUP2 PUSH20 0xFFFFFFFFFFFFFFFFFFFFFFFFFFFFFFFFFFFFFFFF MUL NOT AND SWAP1 DUP4 PUSH20 0xFFFFFFFFFFFFFFFFFFFFFFFFFFFFFFFFFFFFFFFF AND MUL OR SWAP1 SSTORE POP POP POP PUSH1 0x0 PUSH1 0x40 MLOAD DUP1 PUSH1 0xC0 ADD PUSH1 0x40 MSTORE DUP1 PUSH1 0x3 DUP2 MSTORE PUSH1 0x20 ADD PUSH1 0x40 MLOAD DUP1 PUSH1 0x40 ADD PUSH1 0x40 MSTORE DUP1 PUSH1 0x6 DUP2 MSTORE PUSH1 0x20 ADD PUSH32 0x5069646765790000000000000000000000000000000000000000000000000000 DUP2 MSTORE POP DUP2 MSTORE PUSH1 0x20 ADD PUSH1 0x40 MLOAD DUP1 PUSH1 0x80 ADD PUSH1 0x40 MSTORE DUP1 PUSH1 0x5E DUP2 MSTORE PUSH1 0x20 ADD PUSH3 0x1C82 PUSH1 0x5E SWAP2 CODECOPY DUP2 MSTORE PUSH1 0x20 ADD PUSH1 0x40 MLOAD DUP1 PUSH1 0x60 ADD PUSH1 0x40 MSTORE DUP1 PUSH1 0x3F DUP2 MSTORE PUSH1 0x20 ADD PUSH3 0x1C04 PUSH1 0x3F SWAP2 CODECOPY DUP2 MSTORE PUSH1 0x20 ADD PUSH7 0x2386F26FC10000 DUP2 MSTORE PUSH1 0x20 ADD PUSH1 0x0 PUSH20 0xFFFFFFFFFFFFFFFFFFFFFFFFFFFFFFFFFFFFFFFF AND DUP2 MSTORE POP SWAP1 DUP1 PUSH1 0x1 DUP2 SLOAD ADD DUP1 DUP3 SSTORE DUP1 SWAP2 POP POP PUSH1 0x1 SWAP1 SUB SWAP1 PUSH1 0x0 MSTORE PUSH1 0x20 PUSH1 0x0 KECCAK256 SWAP1 PUSH1 0x6 MUL ADD PUSH1 0x0 SWAP1 SWAP2 SWAP1 SWAP2 SWAP1 SWAP2 POP PUSH1 0x0 DUP3 ADD MLOAD DUP2 PUSH1 0x0 ADD SSTORE PUSH1 0x20 DUP3 ADD MLOAD DUP2 PUSH1 0x1 ADD SWAP1 DUP1 MLOAD SWAP1 PUSH1 0x20 ADD SWAP1 PUSH3 0x604 SWAP3 SWAP2 SWAP1 PUSH3 0x9CD JUMP JUMPDEST POP PUSH1 0x40 DUP3 ADD MLOAD DUP2 PUSH1 0x2 ADD SWAP1 DUP1 MLOAD SWAP1 PUSH1 0x20 ADD SWAP1 PUSH3 0x623 SWAP3 SWAP2 SWAP1 PUSH3 0x9CD JUMP JUMPDEST POP PUSH1 0x60 DUP3 ADD MLOAD DUP2 PUSH1 0x3 ADD SWAP1 DUP1 MLOAD SWAP1 PUSH1 0x20 ADD SWAP1 PUSH3 0x642 SWAP3 SWAP2 SWAP1 PUSH3 0x9CD JUMP JUMPDEST POP PUSH1 0x80 DUP3 ADD MLOAD DUP2 PUSH1 0x4 ADD SSTORE PUSH1 0xA0 DUP3 ADD MLOAD DUP2 PUSH1 0x5 ADD PUSH1 0x0 PUSH2 0x100 EXP DUP2 SLOAD DUP2 PUSH20 0xFFFFFFFFFFFFFFFFFFFFFFFFFFFFFFFFFFFFFFFF MUL NOT AND SWAP1 DUP4 PUSH20 0xFFFFFFFFFFFFFFFFFFFFFFFFFFFFFFFFFFFFFFFF AND MUL OR SWAP1 SSTORE POP POP POP PUSH1 0x0 PUSH1 0x40 MLOAD DUP1 PUSH1 0xC0 ADD PUSH1 0x40 MSTORE DUP1 PUSH1 0x4 DUP2 MSTORE PUSH1 0x20 ADD PUSH1 0x40 MLOAD DUP1 PUSH1 0x40 ADD PUSH1 0x40 MSTORE DUP1 PUSH1 0x5 DUP2 MSTORE PUSH1 0x20 ADD PUSH32 0x456B616E73000000000000000000000000000000000000000000000000000000 DUP2 MSTORE POP DUP2 MSTORE PUSH1 0x20 ADD PUSH1 0x40 MLOAD DUP1 PUSH1 0xA0 ADD PUSH1 0x40 MSTORE DUP1 PUSH1 0x65 DUP2 MSTORE PUSH1 0x20 ADD PUSH3 0x1AA3 PUSH1 0x65 SWAP2 CODECOPY DUP2 MSTORE PUSH1 0x20 ADD PUSH1 0x40 MLOAD DUP1 PUSH1 0x60 ADD PUSH1 0x40 MSTORE DUP1 PUSH1 0x3F DUP2 MSTORE PUSH1 0x20 ADD PUSH3 0x1D5E PUSH1 0x3F SWAP2 CODECOPY DUP2 MSTORE PUSH1 0x20 ADD PUSH7 0x6A94D74F430000 DUP2 MSTORE PUSH1 0x20 ADD PUSH1 0x0 PUSH20 0xFFFFFFFFFFFFFFFFFFFFFFFFFFFFFFFFFFFFFFFF AND DUP2 MSTORE POP SWAP1 DUP1 PUSH1 0x1 DUP2 SLOAD ADD DUP1 DUP3 SSTORE DUP1 SWAP2 POP POP PUSH1 0x1 SWAP1 SUB SWAP1 PUSH1 0x0 MSTORE PUSH1 0x20 PUSH1 0x0 KECCAK256 SWAP1 PUSH1 0x6 MUL ADD PUSH1 0x0 SWAP1 SWAP2 SWAP1 SWAP2 SWAP1 SWAP2 POP PUSH1 0x0 DUP3 ADD MLOAD DUP2 PUSH1 0x0 ADD SSTORE PUSH1 0x20 DUP3 ADD MLOAD DUP2 PUSH1 0x1 ADD SWAP1 DUP1 MLOAD SWAP1 PUSH1 0x20 ADD SWAP1 PUSH3 0x79C SWAP3 SWAP2 SWAP1 PUSH3 0x9CD JUMP JUMPDEST POP PUSH1 0x40 DUP3 ADD MLOAD DUP2 PUSH1 0x2 ADD SWAP1 DUP1 MLOAD SWAP1 PUSH1 0x20 ADD SWAP1 PUSH3 0x7BB SWAP3 SWAP2 SWAP1 PUSH3 0x9CD JUMP JUMPDEST POP PUSH1 0x60 DUP3 ADD MLOAD DUP2 PUSH1 0x3 ADD SWAP1 DUP1 MLOAD SWAP1 PUSH1 0x20 ADD SWAP1 PUSH3 0x7DA SWAP3 SWAP2 SWAP1 PUSH3 0x9CD JUMP JUMPDEST POP PUSH1 0x80 DUP3 ADD MLOAD DUP2 PUSH1 0x4 ADD SSTORE PUSH1 0xA0 DUP3 ADD MLOAD DUP2 PUSH1 0x5 ADD PUSH1 0x0 PUSH2 0x100 EXP DUP2 SLOAD DUP2 PUSH20 0xFFFFFFFFFFFFFFFFFFFFFFFFFFFFFFFFFFFFFFFF MUL NOT AND SWAP1 DUP4 PUSH20 0xFFFFFFFFFFFFFFFFFFFFFFFFFFFFFFFFFFFFFFFF AND MUL OR SWAP1 SSTORE POP POP POP PUSH1 0x0 PUSH1 0x40 MLOAD DUP1 PUSH1 0xC0 ADD PUSH1 0x40 MSTORE DUP1 PUSH1 0x5 DUP2 MSTORE PUSH1 0x20 ADD PUSH1 0x40 MLOAD DUP1 PUSH1 0x40 ADD PUSH1 0x40 MSTORE DUP1 PUSH1 0x7 DUP2 MSTORE PUSH1 0x20 ADD PUSH32 0x50696B6163687500000000000000000000000000000000000000000000000000 DUP2 MSTORE POP DUP2 MSTORE PUSH1 0x20 ADD PUSH1 0x40 MLOAD DUP1 PUSH1 0xA0 ADD PUSH1 0x40 MSTORE DUP1 PUSH1 0x66 DUP2 MSTORE PUSH1 0x20 ADD PUSH3 0x1B9E PUSH1 0x66 SWAP2 CODECOPY DUP2 MSTORE PUSH1 0x20 ADD PUSH1 0x40 MLOAD DUP1 PUSH1 0x60 ADD PUSH1 0x40 MSTORE DUP1 PUSH1 0x3F DUP2 MSTORE PUSH1 0x20 ADD PUSH3 0x1B5F PUSH1 0x3F SWAP2 CODECOPY DUP2 MSTORE PUSH1 0x20 ADD PUSH7 0xB1A2BC2EC50000 DUP2 MSTORE PUSH1 0x20 ADD PUSH1 0x0 PUSH20 0xFFFFFFFFFFFFFFFFFFFFFFFFFFFFFFFFFFFFFFFF AND DUP2 MSTORE POP SWAP1 DUP1 PUSH1 0x1 DUP2 SLOAD ADD DUP1 DUP3 SSTORE DUP1 SWAP2 POP POP PUSH1 0x1 SWAP1 SUB SWAP1 PUSH1 0x0 MSTORE PUSH1 0x20 PUSH1 0x0 KECCAK256 SWAP1 PUSH1 0x6 MUL ADD PUSH1 0x0 SWAP1 SWAP2 SWAP1 SWAP2 SWAP1 SWAP2 POP PUSH1 0x0 DUP3 ADD MLOAD DUP2 PUSH1 0x0 ADD SSTORE PUSH1 0x20 DUP3 ADD MLOAD DUP2 PUSH1 0x1 ADD SWAP1 DUP1 MLOAD SWAP1 PUSH1 0x20 ADD SWAP1 PUSH3 0x934 SWAP3 SWAP2 SWAP1 PUSH3 0x9CD JUMP JUMPDEST POP PUSH1 0x40 DUP3 ADD MLOAD DUP2 PUSH1 0x2 ADD SWAP1 DUP1 MLOAD SWAP1 PUSH1 0x20 ADD SWAP1 PUSH3 0x953 SWAP3 SWAP2 SWAP1 PUSH3 0x9CD JUMP JUMPDEST POP PUSH1 0x60 DUP3 ADD MLOAD DUP2 PUSH1 0x3 ADD SWAP1 DUP1 MLOAD SWAP1 PUSH1 0x20 ADD SWAP1 PUSH3 0x972 SWAP3 SWAP2 SWAP1 PUSH3 0x9CD JUMP JUMPDEST POP PUSH1 0x80 DUP3 ADD MLOAD DUP2 PUSH1 0x4 ADD SSTORE PUSH1 0xA0 DUP3 ADD MLOAD DUP2 PUSH1 0x5 ADD PUSH1 0x0 PUSH2 0x100 EXP DUP2 SLOAD DUP2 PUSH20 0xFFFFFFFFFFFFFFFFFFFFFFFFFFFFFFFFFFFFFFFF MUL NOT AND SWAP1 DUP4 PUSH20 0xFFFFFFFFFFFFFFFFFFFFFFFFFFFFFFFFFFFFFFFF AND MUL OR SWAP1 SSTORE POP POP POP POP PUSH3 0xCD0 JUMP JUMPDEST DUP3 DUP1 SLOAD PUSH3 0x9DB SWAP1 PUSH3 0xC9A JUMP JUMPDEST SWAP1 PUSH1 0x0 MSTORE PUSH1 0x20 PUSH1 0x0 KECCAK256 SWAP1 PUSH1 0x1F ADD PUSH1 0x20 SWAP1 DIV DUP2 ADD SWAP3 DUP3 PUSH3 0x9FF JUMPI PUSH1 0x0 DUP6 SSTORE PUSH3 0xA4B JUMP JUMPDEST DUP3 PUSH1 0x1F LT PUSH3 0xA1A JUMPI DUP1 MLOAD PUSH1 0xFF NOT AND DUP4 DUP1 ADD OR DUP6 SSTORE PUSH3 0xA4B JUMP JUMPDEST DUP3 DUP1 ADD PUSH1 0x1 ADD DUP6 SSTORE DUP3 ISZERO PUSH3 0xA4B JUMPI SWAP2 DUP3 ADD JUMPDEST DUP3 DUP2 GT ISZERO PUSH3 0xA4A JUMPI DUP3 MLOAD DUP3 SSTORE SWAP2 PUSH1 0x20 ADD SWAP2 SWAP1 PUSH1 0x1 ADD SWAP1 PUSH3 0xA2D JUMP JUMPDEST JUMPDEST POP SWAP1 POP PUSH3 0xA5A SWAP2 SWAP1 PUSH3 0xA5E JUMP JUMPDEST POP SWAP1 JUMP JUMPDEST JUMPDEST DUP1 DUP3 GT ISZERO PUSH3 0xA79 JUMPI PUSH1 0x0 DUP2 PUSH1 0x0 SWAP1 SSTORE POP PUSH1 0x1 ADD PUSH3 0xA5F JUMP JUMPDEST POP SWAP1 JUMP JUMPDEST PUSH1 0x0 PUSH1 0x40 MLOAD SWAP1 POP SWAP1 JUMP JUMPDEST PUSH1 0x0 DUP1 REVERT JUMPDEST PUSH1 0x0 DUP1 REVERT JUMPDEST PUSH1 0x0 DUP1 REVERT JUMPDEST PUSH1 0x0 DUP1 REVERT JUMPDEST PUSH1 0x0 PUSH1 0x1F NOT PUSH1 0x1F DUP4 ADD AND SWAP1 POP SWAP2 SWAP1 POP JUMP JUMPDEST PUSH32 0x4E487B7100000000000000000000000000000000000000000000000000000000 PUSH1 0x0 MSTORE PUSH1 0x41 PUSH1 0x4 MSTORE PUSH1 0x24 PUSH1 0x0 REVERT JUMPDEST PUSH3 0xAE6 DUP3 PUSH3 0xA9B JUMP JUMPDEST DUP2 ADD DUP2 DUP2 LT PUSH8 0xFFFFFFFFFFFFFFFF DUP3 GT OR ISZERO PUSH3 0xB08 JUMPI PUSH3 0xB07 PUSH3 0xAAC JUMP JUMPDEST JUMPDEST DUP1 PUSH1 0x40 MSTORE POP POP POP JUMP JUMPDEST PUSH1 0x0 PUSH3 0xB1D PUSH3 0xA7D JUMP JUMPDEST SWAP1 POP PUSH3 0xB2B DUP3 DUP3 PUSH3 0xADB JUMP JUMPDEST SWAP2 SWAP1 POP JUMP JUMPDEST PUSH1 0x0 PUSH8 0xFFFFFFFFFFFFFFFF DUP3 GT ISZERO PUSH3 0xB4E JUMPI PUSH3 0xB4D PUSH3 0xAAC JUMP JUMPDEST JUMPDEST PUSH3 0xB59 DUP3 PUSH3 0xA9B JUMP JUMPDEST SWAP1 POP PUSH1 0x20 DUP2 ADD SWAP1 POP SWAP2 SWAP1 POP JUMP JUMPDEST PUSH1 0x0 JUMPDEST DUP4 DUP2 LT ISZERO PUSH3 0xB86 JUMPI DUP1 DUP3 ADD MLOAD DUP2 DUP5 ADD MSTORE PUSH1 0x20 DUP2 ADD SWAP1 POP PUSH3 0xB69 JUMP JUMPDEST DUP4 DUP2 GT ISZERO PUSH3 0xB96 JUMPI PUSH1 0x0 DUP5 DUP5 ADD MSTORE JUMPDEST POP POP POP POP JUMP JUMPDEST PUSH1 0x0 PUSH3 0xBB3 PUSH3 0xBAD DUP5 PUSH3 0xB30 JUMP JUMPDEST PUSH3 0xB11 JUMP JUMPDEST SWAP1 POP DUP3 DUP2 MSTORE PUSH1 0x20 DUP2 ADD DUP5 DUP5 DUP5 ADD GT ISZERO PUSH3 0xBD2 JUMPI PUSH3 0xBD1 PUSH3 0xA96 JUMP JUMPDEST JUMPDEST PUSH3 0xBDF DUP5 DUP3 DUP6 PUSH3 0xB66 JUMP JUMPDEST POP SWAP4 SWAP3 POP POP POP JUMP JUMPDEST PUSH1 0x0 DUP3 PUSH1 0x1F DUP4 ADD SLT PUSH3 0xBFF JUMPI PUSH3 0xBFE PUSH3 0xA91 JUMP JUMPDEST JUMPDEST DUP2 MLOAD PUSH3 0xC11 DUP5 DUP3 PUSH1 0x20 DUP7 ADD PUSH3 0xB9C JUMP JUMPDEST SWAP2 POP POP SWAP3 SWAP2 POP POP JUMP JUMPDEST PUSH1 0x0 PUSH1 0x20 DUP3 DUP5 SUB SLT ISZERO PUSH3 0xC33 JUMPI PUSH3 0xC32 PUSH3 0xA87 JUMP JUMPDEST JUMPDEST PUSH1 0x0 DUP3 ADD MLOAD PUSH8 0xFFFFFFFFFFFFFFFF DUP2 GT ISZERO PUSH3 0xC54 JUMPI PUSH3 0xC53 PUSH3 0xA8C JUMP JUMPDEST JUMPDEST PUSH3 0xC62 DUP5 DUP3 DUP6 ADD PUSH3 0xBE7 JUMP JUMPDEST SWAP2 POP POP SWAP3 SWAP2 POP POP JUMP JUMPDEST PUSH32 0x4E487B7100000000000000000000000000000000000000000000000000000000 PUSH1 0x0 MSTORE PUSH1 0x22 PUSH1 0x4 MSTORE PUSH1 0x24 PUSH1 0x0 REVERT JUMPDEST PUSH1 0x0 PUSH1 0x2 DUP3 DIV SWAP1 POP PUSH1 0x1 DUP3 AND DUP1 PUSH3 0xCB3 JUMPI PUSH1 0x7F DUP3 AND SWAP2 POP JUMPDEST PUSH1 0x20 DUP3 LT DUP2 EQ ISZERO PUSH3 0xCCA JUMPI PUSH3 0xCC9 PUSH3 0xC6B JUMP JUMPDEST JUMPDEST POP SWAP2 SWAP1 POP JUMP JUMPDEST PUSH2 0xCF9 DUP1 PUSH3 0xCE0 PUSH1 0x0 CODECOPY PUSH1 0x0 RETURN INVALID PUSH1 0x80 PUSH1 0x40 MSTORE PUSH1 0x4 CALLDATASIZE LT PUSH2 0x34 JUMPI PUSH1 0x0 CALLDATALOAD PUSH1 0xE0 SHR DUP1 PUSH4 0xD730ACC EQ PUSH2 0x39 JUMPI DUP1 PUSH4 0x265AA621 EQ PUSH2 0x55 JUMPI DUP1 PUSH4 0xD8CB55E3 EQ PUSH2 0x97 JUMPI JUMPDEST PUSH1 0x0 DUP1 REVERT JUMPDEST PUSH2 0x53 PUSH1 0x4 DUP1 CALLDATASIZE SUB DUP2 ADD SWAP1 PUSH2 0x4E SWAP2 SWAP1 PUSH2 0x763 JUMP JUMPDEST PUSH2 0xC2 JUMP JUMPDEST STOP JUMPDEST CALLVALUE DUP1 ISZERO PUSH2 0x61 JUMPI PUSH1 0x0 DUP1 REVERT JUMPDEST POP PUSH2 0x7C PUSH1 0x4 DUP1 CALLDATASIZE SUB DUP2 ADD SWAP1 PUSH2 0x77 SWAP2 SWAP1 PUSH2 0x763 JUMP JUMPDEST PUSH2 0x2A5 JUMP JUMPDEST PUSH1 0x40 MLOAD PUSH2 0x8E SWAP7 SWAP6 SWAP5 SWAP4 SWAP3 SWAP2 SWAP1 PUSH2 0x879 JUMP JUMPDEST PUSH1 0x40 MLOAD DUP1 SWAP2 SUB SWAP1 RETURN JUMPDEST CALLVALUE DUP1 ISZERO PUSH2 0xA3 JUMPI PUSH1 0x0 DUP1 REVERT JUMPDEST POP PUSH2 0xAC PUSH2 0x4A9 JUMP JUMPDEST PUSH1 0x40 MLOAD PUSH2 0xB9 SWAP2 SWAP1 PUSH2 0xAB0 JUMP JUMPDEST PUSH1 0x40 MLOAD DUP1 SWAP2 SUB SWAP1 RETURN JUMPDEST PUSH1 0x0 DUP1 DUP3 DUP2 SLOAD DUP2 LT PUSH2 0xD7 JUMPI PUSH2 0xD6 PUSH2 0xAD2 JUMP JUMPDEST JUMPDEST SWAP1 PUSH1 0x0 MSTORE PUSH1 0x20 PUSH1 0x0 KECCAK256 SWAP1 PUSH1 0x6 MUL ADD SWAP1 POP DUP1 PUSH1 0x4 ADD SLOAD CALLVALUE LT ISZERO PUSH2 0x12E JUMPI PUSH1 0x40 MLOAD PUSH32 0x8C379A000000000000000000000000000000000000000000000000000000000 DUP2 MSTORE PUSH1 0x4 ADD PUSH2 0x125 SWAP1 PUSH2 0xB4D JUMP JUMPDEST PUSH1 0x40 MLOAD DUP1 SWAP2 SUB SWAP1 REVERT JUMPDEST PUSH1 0x0 DUP3 DUP2 SLOAD DUP2 LT PUSH2 0x142 JUMPI PUSH2 0x141 PUSH2 0xAD2 JUMP JUMPDEST JUMPDEST SWAP1 PUSH1 0x0 MSTORE PUSH1 0x20 PUSH1 0x0 KECCAK256 SWAP1 PUSH1 0x6 MUL ADD PUSH1 0x5 ADD PUSH1 0x0 SWAP1 SLOAD SWAP1 PUSH2 0x100 EXP SWAP1 DIV PUSH20 0xFFFFFFFFFFFFFFFFFFFFFFFFFFFFFFFFFFFFFFFF AND PUSH20 0xFFFFFFFFFFFFFFFFFFFFFFFFFFFFFFFFFFFFFFFF AND CALLER PUSH20 0xFFFFFFFFFFFFFFFFFFFFFFFFFFFFFFFFFFFFFFFF AND EQ ISZERO PUSH2 0x1E2 JUMPI PUSH1 0x40 MLOAD PUSH32 0x8C379A000000000000000000000000000000000000000000000000000000000 DUP2 MSTORE PUSH1 0x4 ADD PUSH2 0x1D9 SWAP1 PUSH2 0xBB9 JUMP JUMPDEST PUSH1 0x40 MLOAD DUP1 SWAP2 SUB SWAP1 REVERT JUMPDEST CALLER PUSH1 0x0 DUP4 DUP2 SLOAD DUP2 LT PUSH2 0x1F7 JUMPI PUSH2 0x1F6 PUSH2 0xAD2 JUMP JUMPDEST JUMPDEST SWAP1 PUSH1 0x0 MSTORE PUSH1 0x20 PUSH1 0x0 KECCAK256 SWAP1 PUSH1 0x6 MUL ADD PUSH1 0x5 ADD PUSH1 0x0 PUSH2 0x100 EXP DUP2 SLOAD DUP2 PUSH20 0xFFFFFFFFFFFFFFFFFFFFFFFFFFFFFFFFFFFFFFFF MUL NOT AND SWAP1 DUP4 PUSH20 0xFFFFFFFFFFFFFFFFFFFFFFFFFFFFFFFFFFFFFFFF AND MUL OR SWAP1 SSTORE POP PUSH1 0x2 PUSH1 0x0 DUP4 DUP2 SLOAD DUP2 LT PUSH2 0x25C JUMPI PUSH2 0x25B PUSH2 0xAD2 JUMP JUMPDEST JUMPDEST SWAP1 PUSH1 0x0 MSTORE PUSH1 0x20 PUSH1 0x0 KECCAK256 SWAP1 PUSH1 0x6 MUL ADD PUSH1 0x4 ADD SLOAD PUSH2 0x278 SWAP2 SWAP1 PUSH2 0xC08 JUMP JUMPDEST PUSH1 0x0 DUP4 DUP2 SLOAD DUP2 LT PUSH2 0x28C JUMPI PUSH2 0x28B PUSH2 0xAD2 JUMP JUMPDEST JUMPDEST SWAP1 PUSH1 0x0 MSTORE PUSH1 0x20 PUSH1 0x0 KECCAK256 SWAP1 PUSH1 0x6 MUL ADD PUSH1 0x4 ADD DUP2 SWAP1 SSTORE POP POP POP JUMP JUMPDEST PUSH1 0x0 DUP2 DUP2 SLOAD DUP2 LT PUSH2 0x2B5 JUMPI PUSH1 0x0 DUP1 REVERT JUMPDEST SWAP1 PUSH1 0x0 MSTORE PUSH1 0x20 PUSH1 0x0 KECCAK256 SWAP1 PUSH1 0x6 MUL ADD PUSH1 0x0 SWAP2 POP SWAP1 POP DUP1 PUSH1 0x0 ADD SLOAD SWAP1 DUP1 PUSH1 0x1 ADD DUP1 SLOAD PUSH2 0x2DE SWAP1 PUSH2 0xC91 JUMP JUMPDEST DUP1 PUSH1 0x1F ADD PUSH1 0x20 DUP1 SWAP2 DIV MUL PUSH1 0x20 ADD PUSH1 0x40 MLOAD SWAP1 DUP2 ADD PUSH1 0x40 MSTORE DUP1 SWAP3 SWAP2 SWAP1 DUP2 DUP2 MSTORE PUSH1 0x20 ADD DUP3 DUP1 SLOAD PUSH2 0x30A SWAP1 PUSH2 0xC91 JUMP JUMPDEST DUP1 ISZERO PUSH2 0x357 JUMPI DUP1 PUSH1 0x1F LT PUSH2 0x32C JUMPI PUSH2 0x100 DUP1 DUP4 SLOAD DIV MUL DUP4 MSTORE SWAP2 PUSH1 0x20 ADD SWAP2 PUSH2 0x357 JUMP JUMPDEST DUP3 ADD SWAP2 SWAP1 PUSH1 0x0 MSTORE PUSH1 0x20 PUSH1 0x0 KECCAK256 SWAP1 JUMPDEST DUP2 SLOAD DUP2 MSTORE SWAP1 PUSH1 0x1 ADD SWAP1 PUSH1 0x20 ADD DUP1 DUP4 GT PUSH2 0x33A JUMPI DUP3 SWAP1 SUB PUSH1 0x1F AND DUP3 ADD SWAP2 JUMPDEST POP POP POP POP POP SWAP1 DUP1 PUSH1 0x2 ADD DUP1 SLOAD PUSH2 0x36C SWAP1 PUSH2 0xC91 JUMP JUMPDEST DUP1 PUSH1 0x1F ADD PUSH1 0x20 DUP1 SWAP2 DIV MUL PUSH1 0x20 ADD PUSH1 0x40 MLOAD SWAP1 DUP2 ADD PUSH1 0x40 MSTORE DUP1 SWAP3 SWAP2 SWAP1 DUP2 DUP2 MSTORE PUSH1 0x20 ADD DUP3 DUP1 SLOAD PUSH2 0x398 SWAP1 PUSH2 0xC91 JUMP JUMPDEST DUP1 ISZERO PUSH2 0x3E5 JUMPI DUP1 PUSH1 0x1F LT PUSH2 0x3BA JUMPI PUSH2 0x100 DUP1 DUP4 SLOAD DIV MUL DUP4 MSTORE SWAP2 PUSH1 0x20 ADD SWAP2 PUSH2 0x3E5 JUMP JUMPDEST DUP3 ADD SWAP2 SWAP1 PUSH1 0x0 MSTORE PUSH1 0x20 PUSH1 0x0 KECCAK256 SWAP1 JUMPDEST DUP2 SLOAD DUP2 MSTORE SWAP1 PUSH1 0x1 ADD SWAP1 PUSH1 0x20 ADD DUP1 DUP4 GT PUSH2 0x3C8 JUMPI DUP3 SWAP1 SUB PUSH1 0x1F AND DUP3 ADD SWAP2 JUMPDEST POP POP POP POP POP SWAP1 DUP1 PUSH1 0x3 ADD DUP1 SLOAD PUSH2 0x3FA SWAP1 PUSH2 0xC91 JUMP JUMPDEST DUP1 PUSH1 0x1F ADD PUSH1 0x20 DUP1 SWAP2 DIV MUL PUSH1 0x20 ADD PUSH1 0x40 MLOAD SWAP1 DUP2 ADD PUSH1 0x40 MSTORE DUP1 SWAP3 SWAP2 SWAP1 DUP2 DUP2 MSTORE PUSH1 0x20 ADD DUP3 DUP1 SLOAD PUSH2 0x426 SWAP1 PUSH2 0xC91 JUMP JUMPDEST DUP1 ISZERO PUSH2 0x473 JUMPI DUP1 PUSH1 0x1F LT PUSH2 0x448 JUMPI PUSH2 0x100 DUP1 DUP4 SLOAD DIV MUL DUP4 MSTORE SWAP2 PUSH1 0x20 ADD SWAP2 PUSH2 0x473 JUMP JUMPDEST DUP3 ADD SWAP2 SWAP1 PUSH1 0x0 MSTORE PUSH1 0x20 PUSH1 0x0 KECCAK256 SWAP1 JUMPDEST DUP2 SLOAD DUP2 MSTORE SWAP1 PUSH1 0x1 ADD SWAP1 PUSH1 0x20 ADD DUP1 DUP4 GT PUSH2 0x456 JUMPI DUP3 SWAP1 SUB PUSH1 0x1F AND DUP3 ADD SWAP2 JUMPDEST POP POP POP POP POP SWAP1 DUP1 PUSH1 0x4 ADD SLOAD SWAP1 DUP1 PUSH1 0x5 ADD PUSH1 0x0 SWAP1 SLOAD SWAP1 PUSH2 0x100 EXP SWAP1 DIV PUSH20 0xFFFFFFFFFFFFFFFFFFFFFFFFFFFFFFFFFFFFFFFF AND SWAP1 POP DUP7 JUMP JUMPDEST PUSH1 0x60 PUSH1 0x0 DUP1 SLOAD DUP1 PUSH1 0x20 MUL PUSH1 0x20 ADD PUSH1 0x40 MLOAD SWAP1 DUP2 ADD PUSH1 0x40 MSTORE DUP1 SWAP3 SWAP2 SWAP1 DUP2 DUP2 MSTORE PUSH1 0x20 ADD PUSH1 0x0 SWAP1 JUMPDEST DUP3 DUP3 LT ISZERO PUSH2 0x71F JUMPI DUP4 DUP3 SWAP1 PUSH1 0x0 MSTORE PUSH1 0x20 PUSH1 0x0 KECCAK256 SWAP1 PUSH1 0x6 MUL ADD PUSH1 0x40 MLOAD DUP1 PUSH1 0xC0 ADD PUSH1 0x40 MSTORE SWAP1 DUP2 PUSH1 0x0 DUP3 ADD SLOAD DUP2 MSTORE PUSH1 0x20 ADD PUSH1 0x1 DUP3 ADD DUP1 SLOAD PUSH2 0x50A SWAP1 PUSH2 0xC91 JUMP JUMPDEST DUP1 PUSH1 0x1F ADD PUSH1 0x20 DUP1 SWAP2 DIV MUL PUSH1 0x20 ADD PUSH1 0x40 MLOAD SWAP1 DUP2 ADD PUSH1 0x40 MSTORE DUP1 SWAP3 SWAP2 SWAP1 DUP2 DUP2 MSTORE PUSH1 0x20 ADD DUP3 DUP1 SLOAD PUSH2 0x536 SWAP1 PUSH2 0xC91 JUMP JUMPDEST DUP1 ISZERO PUSH2 0x583 JUMPI DUP1 PUSH1 0x1F LT PUSH2 0x558 JUMPI PUSH2 0x100 DUP1 DUP4 SLOAD DIV MUL DUP4 MSTORE SWAP2 PUSH1 0x20 ADD SWAP2 PUSH2 0x583 JUMP JUMPDEST DUP3 ADD SWAP2 SWAP1 PUSH1 0x0 MSTORE PUSH1 0x20 PUSH1 0x0 KECCAK256 SWAP1 JUMPDEST DUP2 SLOAD DUP2 MSTORE SWAP1 PUSH1 0x1 ADD SWAP1 PUSH1 0x20 ADD DUP1 DUP4 GT PUSH2 0x566 JUMPI DUP3 SWAP1 SUB PUSH1 0x1F AND DUP3 ADD SWAP2 JUMPDEST POP POP POP POP POP DUP2 MSTORE PUSH1 0x20 ADD PUSH1 0x2 DUP3 ADD DUP1 SLOAD PUSH2 0x59C SWAP1 PUSH2 0xC91 JUMP JUMPDEST DUP1 PUSH1 0x1F ADD PUSH1 0x20 DUP1 SWAP2 DIV MUL PUSH1 0x20 ADD PUSH1 0x40 MLOAD SWAP1 DUP2 ADD PUSH1 0x40 MSTORE DUP1 SWAP3 SWAP2 SWAP1 DUP2 DUP2 MSTORE PUSH1 0x20 ADD DUP3 DUP1 SLOAD PUSH2 0x5C8 SWAP1 PUSH2 0xC91 JUMP JUMPDEST DUP1 ISZERO PUSH2 0x615 JUMPI DUP1 PUSH1 0x1F LT PUSH2 0x5EA JUMPI PUSH2 0x100 DUP1 DUP4 SLOAD DIV MUL DUP4 MSTORE SWAP2 PUSH1 0x20 ADD SWAP2 PUSH2 0x615 JUMP JUMPDEST DUP3 ADD SWAP2 SWAP1 PUSH1 0x0 MSTORE PUSH1 0x20 PUSH1 0x0 KECCAK256 SWAP1 JUMPDEST DUP2 SLOAD DUP2 MSTORE SWAP1 PUSH1 0x1 ADD SWAP1 PUSH1 0x20 ADD DUP1 DUP4 GT PUSH2 0x5F8 JUMPI DUP3 SWAP1 SUB PUSH1 0x1F AND DUP3 ADD SWAP2 JUMPDEST POP POP POP POP POP DUP2 MSTORE PUSH1 0x20 ADD PUSH1 0x3 DUP3 ADD DUP1 SLOAD PUSH2 0x62E SWAP1 PUSH2 0xC91 JUMP JUMPDEST DUP1 PUSH1 0x1F ADD PUSH1 0x20 DUP1 SWAP2 DIV MUL PUSH1 0x20 ADD PUSH1 0x40 MLOAD SWAP1 DUP2 ADD PUSH1 0x40 MSTORE DUP1 SWAP3 SWAP2 SWAP1 DUP2 DUP2 MSTORE PUSH1 0x20 ADD DUP3 DUP1 SLOAD PUSH2 0x65A SWAP1 PUSH2 0xC91 JUMP JUMPDEST DUP1 ISZERO PUSH2 0x6A7 JUMPI DUP1 PUSH1 0x1F LT PUSH2 0x67C JUMPI PUSH2 0x100 DUP1 DUP4 SLOAD DIV MUL DUP4 MSTORE SWAP2 PUSH1 0x20 ADD SWAP2 PUSH2 0x6A7 JUMP JUMPDEST DUP3 ADD SWAP2 SWAP1 PUSH1 0x0 MSTORE PUSH1 0x20 PUSH1 0x0 KECCAK256 SWAP1 JUMPDEST DUP2 SLOAD DUP2 MSTORE SWAP1 PUSH1 0x1 ADD SWAP1 PUSH1 0x20 ADD DUP1 DUP4 GT PUSH2 0x68A JUMPI DUP3 SWAP1 SUB PUSH1 0x1F AND DUP3 ADD SWAP2 JUMPDEST POP POP POP POP POP DUP2 MSTORE PUSH1 0x20 ADD PUSH1 0x4 DUP3 ADD SLOAD DUP2 MSTORE PUSH1 0x20 ADD PUSH1 0x5 DUP3 ADD PUSH1 0x0 SWAP1 SLOAD SWAP1 PUSH2 0x100 EXP SWAP1 DIV PUSH20 0xFFFFFFFFFFFFFFFFFFFFFFFFFFFFFFFFFFFFFFFF AND PUSH20 0xFFFFFFFFFFFFFFFFFFFFFFFFFFFFFFFFFFFFFFFF AND PUSH20 0xFFFFFFFFFFFFFFFFFFFFFFFFFFFFFFFFFFFFFFFF AND DUP2 MSTORE POP POP DUP2 MSTORE PUSH1 0x20 ADD SWAP1 PUSH1 0x1 ADD SWAP1 PUSH2 0x4CD JUMP JUMPDEST POP POP POP POP SWAP1 POP SWAP1 JUMP JUMPDEST PUSH1 0x0 DUP1 REVERT JUMPDEST PUSH1 0x0 DUP2 SWAP1 POP SWAP2 SWAP1 POP JUMP JUMPDEST PUSH2 0x740 DUP2 PUSH2 0x72D JUMP JUMPDEST DUP2 EQ PUSH2 0x74B JUMPI PUSH1 0x0 DUP1 REVERT JUMPDEST POP JUMP JUMPDEST PUSH1 0x0 DUP2 CALLDATALOAD SWAP1 POP PUSH2 0x75D DUP2 PUSH2 0x737 JUMP JUMPDEST SWAP3 SWAP2 POP POP JUMP JUMPDEST PUSH1 0x0 PUSH1 0x20 DUP3 DUP5 SUB SLT ISZERO PUSH2 0x779 JUMPI PUSH2 0x778 PUSH2 0x728 JUMP JUMPDEST JUMPDEST PUSH1 0x0 PUSH2 0x787 DUP5 DUP3 DUP6 ADD PUSH2 0x74E JUMP JUMPDEST SWAP2 POP POP SWAP3 SWAP2 POP POP JUMP JUMPDEST PUSH2 0x799 DUP2 PUSH2 0x72D JUMP JUMPDEST DUP3 MSTORE POP POP JUMP JUMPDEST PUSH1 0x0 DUP2 MLOAD SWAP1 POP SWAP2 SWAP1 POP JUMP JUMPDEST PUSH1 0x0 DUP3 DUP3 MSTORE PUSH1 0x20 DUP3 ADD SWAP1 POP SWAP3 SWAP2 POP POP JUMP JUMPDEST PUSH1 0x0 JUMPDEST DUP4 DUP2 LT ISZERO PUSH2 0x7D9 JUMPI DUP1 DUP3 ADD MLOAD DUP2 DUP5 ADD MSTORE PUSH1 0x20 DUP2 ADD SWAP1 POP PUSH2 0x7BE JUMP JUMPDEST DUP4 DUP2 GT ISZERO PUSH2 0x7E8 JUMPI PUSH1 0x0 DUP5 DUP5 ADD MSTORE JUMPDEST POP POP POP POP JUMP JUMPDEST PUSH1 0x0 PUSH1 0x1F NOT PUSH1 0x1F DUP4 ADD AND SWAP1 POP SWAP2 SWAP1 POP JUMP JUMPDEST PUSH1 0x0 PUSH2 0x80A DUP3 PUSH2 0x79F JUMP JUMPDEST PUSH2 0x814 DUP2 DUP6 PUSH2 0x7AA JUMP JUMPDEST SWAP4 POP PUSH2 0x824 DUP2 DUP6 PUSH1 0x20 DUP7 ADD PUSH2 0x7BB JUMP JUMPDEST PUSH2 0x82D DUP2 PUSH2 0x7EE JUMP JUMPDEST DUP5 ADD SWAP2 POP POP SWAP3 SWAP2 POP POP JUMP JUMPDEST PUSH1 0x0 PUSH20 0xFFFFFFFFFFFFFFFFFFFFFFFFFFFFFFFFFFFFFFFF DUP3 AND SWAP1 POP SWAP2 SWAP1 POP JUMP JUMPDEST PUSH1 0x0 PUSH2 0x863 DUP3 PUSH2 0x838 JUMP JUMPDEST SWAP1 POP SWAP2 SWAP1 POP JUMP JUMPDEST PUSH2 0x873 DUP2 PUSH2 0x858 JUMP JUMPDEST DUP3 MSTORE POP POP JUMP JUMPDEST PUSH1 0x0 PUSH1 0xC0 DUP3 ADD SWAP1 POP PUSH2 0x88E PUSH1 0x0 DUP4 ADD DUP10 PUSH2 0x790 JUMP JUMPDEST DUP2 DUP2 SUB PUSH1 0x20 DUP4 ADD MSTORE PUSH2 0x8A0 DUP2 DUP9 PUSH2 0x7FF JUMP JUMPDEST SWAP1 POP DUP2 DUP2 SUB PUSH1 0x40 DUP4 ADD MSTORE PUSH2 0x8B4 DUP2 DUP8 PUSH2 0x7FF JUMP JUMPDEST SWAP1 POP DUP2 DUP2 SUB PUSH1 0x60 DUP4 ADD MSTORE PUSH2 0x8C8 DUP2 DUP7 PUSH2 0x7FF JUMP JUMPDEST SWAP1 POP PUSH2 0x8D7 PUSH1 0x80 DUP4 ADD DUP6 PUSH2 0x790 JUMP JUMPDEST PUSH2 0x8E4 PUSH1 0xA0 DUP4 ADD DUP5 PUSH2 0x86A JUMP JUMPDEST SWAP8 SWAP7 POP POP POP POP POP POP POP JUMP JUMPDEST PUSH1 0x0 DUP2 MLOAD SWAP1 POP SWAP2 SWAP1 POP JUMP JUMPDEST PUSH1 0x0 DUP3 DUP3 MSTORE PUSH1 0x20 DUP3 ADD SWAP1 POP SWAP3 SWAP2 POP POP JUMP JUMPDEST PUSH1 0x0 DUP2 SWAP1 POP PUSH1 0x20 DUP3 ADD SWAP1 POP SWAP2 SWAP1 POP JUMP JUMPDEST PUSH2 0x924 DUP2 PUSH2 0x72D JUMP JUMPDEST DUP3 MSTORE POP POP JUMP JUMPDEST PUSH1 0x0 DUP3 DUP3 MSTORE PUSH1 0x20 DUP3 ADD SWAP1 POP SWAP3 SWAP2 POP POP JUMP JUMPDEST PUSH1 0x0 PUSH2 0x946 DUP3 PUSH2 0x79F JUMP JUMPDEST PUSH2 0x950 DUP2 DUP6 PUSH2 0x92A JUMP JUMPDEST SWAP4 POP PUSH2 0x960 DUP2 DUP6 PUSH1 0x20 DUP7 ADD PUSH2 0x7BB JUMP JUMPDEST PUSH2 0x969 DUP2 PUSH2 0x7EE JUMP JUMPDEST DUP5 ADD SWAP2 POP POP SWAP3 SWAP2 POP POP JUMP JUMPDEST PUSH2 0x97D DUP2 PUSH2 0x858 JUMP JUMPDEST DUP3 MSTORE POP POP JUMP JUMPDEST PUSH1 0x0 PUSH1 0xC0 DUP4 ADD PUSH1 0x0 DUP4 ADD MLOAD PUSH2 0x99B PUSH1 0x0 DUP7 ADD DUP3 PUSH2 0x91B JUMP JUMPDEST POP PUSH1 0x20 DUP4 ADD MLOAD DUP5 DUP3 SUB PUSH1 0x20 DUP7 ADD MSTORE PUSH2 0x9B3 DUP3 DUP3 PUSH2 0x93B JUMP JUMPDEST SWAP2 POP POP PUSH1 0x40 DUP4 ADD MLOAD DUP5 DUP3 SUB PUSH1 0x40 DUP7 ADD MSTORE PUSH2 0x9CD DUP3 DUP3 PUSH2 0x93B JUMP JUMPDEST SWAP2 POP POP PUSH1 0x60 DUP4 ADD MLOAD DUP5 DUP3 SUB PUSH1 0x60 DUP7 ADD MSTORE PUSH2 0x9E7 DUP3 DUP3 PUSH2 0x93B JUMP JUMPDEST SWAP2 POP POP PUSH1 0x80 DUP4 ADD MLOAD PUSH2 0x9FC PUSH1 0x80 DUP7 ADD DUP3 PUSH2 0x91B JUMP JUMPDEST POP PUSH1 0xA0 DUP4 ADD MLOAD PUSH2 0xA0F PUSH1 0xA0 DUP7 ADD DUP3 PUSH2 0x974 JUMP JUMPDEST POP DUP1 SWAP2 POP POP SWAP3 SWAP2 POP POP JUMP JUMPDEST PUSH1 0x0 PUSH2 0xA26 DUP4 DUP4 PUSH2 0x983 JUMP JUMPDEST SWAP1 POP SWAP3 SWAP2 POP POP JUMP JUMPDEST PUSH1 0x0 PUSH1 0x20 DUP3 ADD SWAP1 POP SWAP2 SWAP1 POP JUMP JUMPDEST PUSH1 0x0 PUSH2 0xA46 DUP3 PUSH2 0x8EF JUMP JUMPDEST PUSH2 0xA50 DUP2 DUP6 PUSH2 0x8FA JUMP JUMPDEST SWAP4 POP DUP4 PUSH1 0x20 DUP3 MUL DUP6 ADD PUSH2 0xA62 DUP6 PUSH2 0x90B JUMP JUMPDEST DUP1 PUSH1 0x0 JUMPDEST DUP6 DUP2 LT ISZERO PUSH2 0xA9E JUMPI DUP5 DUP5 SUB DUP10 MSTORE DUP2 MLOAD PUSH2 0xA7F DUP6 DUP3 PUSH2 0xA1A JUMP JUMPDEST SWAP5 POP PUSH2 0xA8A DUP4 PUSH2 0xA2E JUMP JUMPDEST SWAP3 POP PUSH1 0x20 DUP11 ADD SWAP10 POP POP PUSH1 0x1 DUP2 ADD SWAP1 POP PUSH2 0xA66 JUMP JUMPDEST POP DUP3 SWAP8 POP DUP8 SWAP6 POP POP POP POP POP POP SWAP3 SWAP2 POP POP JUMP JUMPDEST PUSH1 0x0 PUSH1 0x20 DUP3 ADD SWAP1 POP DUP2 DUP2 SUB PUSH1 0x0 DUP4 ADD MSTORE PUSH2 0xACA DUP2 DUP5 PUSH2 0xA3B JUMP JUMPDEST SWAP1 POP SWAP3 SWAP2 POP POP JUMP JUMPDEST PUSH32 0x4E487B7100000000000000000000000000000000000000000000000000000000 PUSH1 0x0 MSTORE PUSH1 0x32 PUSH1 0x4 MSTORE PUSH1 0x24 PUSH1 0x0 REVERT JUMPDEST PUSH32 0x4E65656420746F20706179207570210000000000000000000000000000000000 PUSH1 0x0 DUP3 ADD MSTORE POP JUMP JUMPDEST PUSH1 0x0 PUSH2 0xB37 PUSH1 0xF DUP4 PUSH2 0x7AA JUMP JUMPDEST SWAP2 POP PUSH2 0xB42 DUP3 PUSH2 0xB01 JUMP JUMPDEST PUSH1 0x20 DUP3 ADD SWAP1 POP SWAP2 SWAP1 POP JUMP JUMPDEST PUSH1 0x0 PUSH1 0x20 DUP3 ADD SWAP1 POP DUP2 DUP2 SUB PUSH1 0x0 DUP4 ADD MSTORE PUSH2 0xB66 DUP2 PUSH2 0xB2A JUMP JUMPDEST SWAP1 POP SWAP2 SWAP1 POP JUMP JUMPDEST PUSH32 0x596F7520616C7265616479206861766520697421000000000000000000000000 PUSH1 0x0 DUP3 ADD MSTORE POP JUMP JUMPDEST PUSH1 0x0 PUSH2 0xBA3 PUSH1 0x14 DUP4 PUSH2 0x7AA JUMP JUMPDEST SWAP2 POP PUSH2 0xBAE DUP3 PUSH2 0xB6D JUMP JUMPDEST PUSH1 0x20 DUP3 ADD SWAP1 POP SWAP2 SWAP1 POP JUMP JUMPDEST PUSH1 0x0 PUSH1 0x20 DUP3 ADD SWAP1 POP DUP2 DUP2 SUB PUSH1 0x0 DUP4 ADD MSTORE PUSH2 0xBD2 DUP2 PUSH2 0xB96 JUMP JUMPDEST SWAP1 POP SWAP2 SWAP1 POP JUMP JUMPDEST PUSH32 0x4E487B7100000000000000000000000000000000000000000000000000000000 PUSH1 0x0 MSTORE PUSH1 0x11 PUSH1 0x4 MSTORE PUSH1 0x24 PUSH1 0x0 REVERT JUMPDEST PUSH1 0x0 PUSH2 0xC13 DUP3 PUSH2 0x72D JUMP JUMPDEST SWAP2 POP PUSH2 0xC1E DUP4 PUSH2 0x72D JUMP JUMPDEST SWAP3 POP DUP2 PUSH32 0xFFFFFFFFFFFFFFFFFFFFFFFFFFFFFFFFFFFFFFFFFFFFFFFFFFFFFFFFFFFFFFFF DIV DUP4 GT DUP3 ISZERO ISZERO AND ISZERO PUSH2 0xC57 JUMPI PUSH2 0xC56 PUSH2 0xBD9 JUMP JUMPDEST JUMPDEST DUP3 DUP3 MUL SWAP1 POP SWAP3 SWAP2 POP POP JUMP JUMPDEST PUSH32 0x4E487B7100000000000000000000000000000000000000000000000000000000 PUSH1 0x0 MSTORE PUSH1 0x22 PUSH1 0x4 MSTORE PUSH1 0x24 PUSH1 0x0 REVERT JUMPDEST PUSH1 0x0 PUSH1 0x2 DUP3 DIV SWAP1 POP PUSH1 0x1 DUP3 AND DUP1 PUSH2 0xCA9 JUMPI PUSH1 0x7F DUP3 AND SWAP2 POP JUMPDEST PUSH1 0x20 DUP3 LT DUP2 EQ ISZERO PUSH2 0xCBD JUMPI PUSH2 0xCBC PUSH2 0xC62 JUMP JUMPDEST JUMPDEST POP SWAP2 SWAP1 POP JUMP INVALID LOG2 PUSH5 0x6970667358 0x22 SLT KECCAK256 JUMPDEST 0x22 XOR RETURNDATACOPY STATICCALL 0xD7 CODESIZE 0xED STOP 0xD1 PUSH3 0xC1674A 0xCA 0x4D 0x25 0xEF 0xC9 0xD8 0xE9 0xE8 PUSH24 0x4F4816029C0F37040A64736F6C6343000809003354686572 PUSH6 0x206973206120 PUSH17 0x6C616E742073656564206F6E2069747320 PUSH3 0x61636B KECCAK256 PUSH19 0x696768742066726F6D20746865206461792074 PUSH9 0x697320506F6B656D6F PUSH15 0x20697320626F726E2E205468652073 PUSH6 0x656420736C6F PUSH24 0x6C792067726F7773206C6172676572497420686173206120 PUSH17 0x7265666572656E636520666F7220686F74 KECCAK256 PUSH21 0x68696E67732E205768656E206974207261696E732C KECCAK256 PUSH20 0x7465616D206973207361696420746F2073706F75 PUSH21 0x2066726F6D2074686520746970206F662069747320 PUSH21 0x61696C2E546865206F6C6465722069742067657473 0x2C KECCAK256 PUSH21 0x6865206C6F6E6765722069742067726F77732E2041 PUSH21 0x206E696768742C2069742077726170732069747320 PUSH13 0x6F6E6720626F64792061726F75 PUSH15 0x642074726565206272616E63686573 KECCAK256 PUSH21 0x6F20726573745768656E2069742072657472616374 PUSH20 0x20697473206C6F6E67206E65636B20696E746F20 PUSH10 0x7473207368656C6C2C20 PUSH10 0x74207371756972747320 PUSH16 0x75742077617465722077697468207669 PUSH8 0x6F726F757320666F PUSH19 0x636568747470733A2F2F6173736574732E706F PUSH12 0x656D6F6E2E636F6D2F617373 PUSH6 0x74732F636D73 ORIGIN 0x2F PUSH10 0x6D672F706F6B65646578 0x2F PUSH7 0x756C6C2F303235 0x2E PUSH17 0x6E6750696B616368752074686174206361 PUSH15 0x2067656E657261746520706F776572 PUSH7 0x756C20656C6563 PUSH21 0x726963697479206861766520636865656B20736163 PUSH20 0x20746861742061726520657874726120736F6674 KECCAK256 PUSH2 0x6E64 KECCAK256 PUSH20 0x757065722073747265746368792E68747470733A 0x2F 0x2F PUSH2 0x7373 PUSH6 0x74732E706F6B PUSH6 0x6D6F6E2E636F PUSH14 0x2F6173736574732F636D73322F69 PUSH14 0x672F706F6B656465782F66756C6C 0x2F ADDRESS BALANCE CALLDATASIZE 0x2E PUSH17 0x6E6768747470733A2F2F6173736574732E PUSH17 0x6F6B656D6F6E2E636F6D2F617373657473 0x2F PUSH4 0x6D73322F PUSH10 0x6D672F706F6B65646578 0x2F PUSH7 0x756C6C2F303031 0x2E PUSH17 0x6E675665727920646F63696C652E204966 KECCAK256 PUSH2 0x7474 PUSH2 0x636B PUSH6 0x642C20697420 PUSH24 0x696C6C206F6674656E206B69636B2075702073616E642074 PUSH16 0x2070726F7465637420697473656C6620 PUSH19 0x6174686572207468616E206669676874206261 PUSH4 0x6B2E6874 PUSH21 0x70733A2F2F6173736574732E706F6B656D6F6E2E63 PUSH16 0x6D2F6173736574732F636D73322F696D PUSH8 0x2F706F6B65646578 0x2F PUSH7 0x756C6C2F303037 0x2E PUSH17 0x6E6768747470733A2F2F6173736574732E PUSH17 0x6F6B656D6F6E2E636F6D2F617373657473 0x2F PUSH4 0x6D73322F PUSH10 0x6D672F706F6B65646578 0x2F PUSH7 0x756C6C2F303034 0x2E PUSH17 0x6E6768747470733A2F2F6173736574732E PUSH17 0x6F6B656D6F6E2E636F6D2F617373657473 0x2F PUSH4 0x6D73322F PUSH10 0x6D672F706F6B65646578 0x2F PUSH7 0x756C6C2F303233 0x2E PUSH17 0x6E67000000000000000000000000000000 "
        },
        "methodIdentifiers": {
          "getNfts()": "d8cb55e3",
          "mintNft(uint256)": "0d730acc",
          "nfts(uint256)": "265aa621"
        }
      }
    }
  }
}