{
  "_format": "hh-sol-artifact-1",
  "contractName": "MyContract",
  "sourceName": "contracts/MyContract.sol",
  "abi": [
    {
      "inputs": [
        {
          "internalType": "string",
          "name": "_name",
          "type": "string"
        }
      ],
      "stateMutability": "nonpayable",
      "type": "constructor"
    },
    {
      "inputs": [],
      "name": "getNfts",
      "outputs": [
        {
          "components": [
            {
              "internalType": "uint256",
              "name": "id",
              "type": "uint256"
            },
            {
              "internalType": "string",
              "name": "name",
              "type": "string"
            },
            {
              "internalType": "string",
              "name": "desc",
              "type": "string"
            },
            {
              "internalType": "string",
              "name": "image",
              "type": "string"
            },
            {
              "internalType": "uint256",
              "name": "price",
              "type": "uint256"
            },
            {
              "internalType": "address",
              "name": "owner",
              "type": "address"
            }
          ],
          "internalType": "struct MyContract.Nft[]",
          "name": "",
          "type": "tuple[]"
        }
      ],
      "stateMutability": "view",
      "type": "function"
    },
    {
      "inputs": [
        {
          "internalType": "uint256",
          "name": "_id",
          "type": "uint256"
        }
      ],
      "name": "mintNft",
      "outputs": [],
      "stateMutability": "payable",
      "type": "function"
    },
    {
      "inputs": [
        {
          "internalType": "uint256",
          "name": "",
          "type": "uint256"
        }
      ],
      "name": "nfts",
      "outputs": [
        {
          "internalType": "uint256",
          "name": "id",
          "type": "uint256"
        },
        {
          "internalType": "string",
          "name": "name",
          "type": "string"
        },
        {
          "internalType": "string",
          "name": "desc",
          "type": "string"
        },
        {
          "internalType": "string",
          "name": "image",
          "type": "string"
        },
        {
          "internalType": "uint256",
          "name": "price",
          "type": "uint256"
        },
        {
          "internalType": "address",
          "name": "owner",
          "type": "address"
        }
      ],
      "stateMutability": "view",
      "type": "function"
    }
  ],
  "bytecode": "0x60806040523480156200001157600080fd5b5060405162001d9d38038062001d9d833981810160405281019062000037919062000c1a565b60006040518060c00160405280600081526020016040518060400160405280600981526020017f42756c626173617572000000000000000000000000000000000000000000000081525081526020016040518060a0016040528060678152602001620019d96067913981526020016040518060600160405280603f815260200162001c43603f91398152602001655af3107a40008152602001600073ffffffffffffffffffffffffffffffffffffffff1681525090806001815401808255809150506001900390600052602060002090600602016000909190919091506000820151816000015560208201518160010190805190602001906200013c929190620009cd565b5060408201518160020190805190602001906200015b929190620009cd565b5060608201518160030190805190602001906200017a929190620009cd565b506080820151816004015560a08201518160050160006101000a81548173ffffffffffffffffffffffffffffffffffffffff021916908373ffffffffffffffffffffffffffffffffffffffff160217905550505060006040518060c00160405280600181526020016040518060400160405280600a81526020017f436861726d616e6465720000000000000000000000000000000000000000000081525081526020016040518060a001604052806063815260200162001a406063913981526020016040518060600160405280603f815260200162001d1f603f9139815260200166071afd498d00008152602001600073ffffffffffffffffffffffffffffffffffffffff168152509080600181540180825580915050600190039060005260206000209060060201600090919091909150600082015181600001556020820151816001019080519060200190620002d4929190620009cd565b506040820151816002019080519060200190620002f3929190620009cd565b50606082015181600301908051906020019062000312929190620009cd565b506080820151816004015560a08201518160050160006101000a81548173ffffffffffffffffffffffffffffffffffffffff021916908373ffffffffffffffffffffffffffffffffffffffff160217905550505060006040518060c00160405280600281526020016040518060400160405280600881526020017f5371756972746c65000000000000000000000000000000000000000000000000815250815260200160405180608001604052806057815260200162001b086057913981526020016040518060600160405280603f815260200162001ce0603f91398152602001662386f26fc100008152602001600073ffffffffffffffffffffffffffffffffffffffff1681525090806001815401808255809150506001900390600052602060002090600602016000909190919091506000820151816000015560208201518160010190805190602001906200046c929190620009cd565b5060408201518160020190805190602001906200048b929190620009cd565b506060820151816003019080519060200190620004aa929190620009cd565b506080820151816004015560a08201518160050160006101000a81548173ffffffffffffffffffffffffffffffffffffffff021916908373ffffffffffffffffffffffffffffffffffffffff160217905550505060006040518060c00160405280600381526020016040518060400160405280600681526020017f506964676579000000000000000000000000000000000000000000000000000081525081526020016040518060800160405280605e815260200162001c82605e913981526020016040518060600160405280603f815260200162001c04603f91398152602001662386f26fc100008152602001600073ffffffffffffffffffffffffffffffffffffffff16815250908060018154018082558091505060019003906000526020600020906006020160009091909190915060008201518160000155602082015181600101908051906020019062000604929190620009cd565b50604082015181600201908051906020019062000623929190620009cd565b50606082015181600301908051906020019062000642929190620009cd565b506080820151816004015560a08201518160050160006101000a81548173ffffffffffffffffffffffffffffffffffffffff021916908373ffffffffffffffffffffffffffffffffffffffff160217905550505060006040518060c00160405280600481526020016040518060400160405280600581526020017f456b616e7300000000000000000000000000000000000000000000000000000081525081526020016040518060a001604052806065815260200162001aa36065913981526020016040518060600160405280603f815260200162001d5e603f91398152602001666a94d74f4300008152602001600073ffffffffffffffffffffffffffffffffffffffff1681525090806001815401808255809150506001900390600052602060002090600602016000909190919091506000820151816000015560208201518160010190805190602001906200079c929190620009cd565b506040820151816002019080519060200190620007bb929190620009cd565b506060820151816003019080519060200190620007da929190620009cd565b506080820151816004015560a08201518160050160006101000a81548173ffffffffffffffffffffffffffffffffffffffff021916908373ffffffffffffffffffffffffffffffffffffffff160217905550505060006040518060c00160405280600581526020016040518060400160405280600781526020017f50696b616368750000000000000000000000000000000000000000000000000081525081526020016040518060a001604052806066815260200162001b9e6066913981526020016040518060600160405280603f815260200162001b5f603f9139815260200166b1a2bc2ec500008152602001600073ffffffffffffffffffffffffffffffffffffffff16815250908060018154018082558091505060019003906000526020600020906006020160009091909190915060008201518160000155602082015181600101908051906020019062000934929190620009cd565b50604082015181600201908051906020019062000953929190620009cd565b50606082015181600301908051906020019062000972929190620009cd565b506080820151816004015560a08201518160050160006101000a81548173ffffffffffffffffffffffffffffffffffffffff021916908373ffffffffffffffffffffffffffffffffffffffff16021790555050505062000cd0565b828054620009db9062000c9a565b90600052602060002090601f016020900481019282620009ff576000855562000a4b565b82601f1062000a1a57805160ff191683800117855562000a4b565b8280016001018555821562000a4b579182015b8281111562000a4a57825182559160200191906001019062000a2d565b5b50905062000a5a919062000a5e565b5090565b5b8082111562000a7957600081600090555060010162000a5f565b5090565b6000604051905090565b600080fd5b600080fd5b600080fd5b600080fd5b6000601f19601f8301169050919050565b7f4e487b7100000000000000000000000000000000000000000000000000000000600052604160045260246000fd5b62000ae68262000a9b565b810181811067ffffffffffffffff8211171562000b085762000b0762000aac565b5b80604052505050565b600062000b1d62000a7d565b905062000b2b828262000adb565b919050565b600067ffffffffffffffff82111562000b4e5762000b4d62000aac565b5b62000b598262000a9b565b9050602081019050919050565b60005b8381101562000b8657808201518184015260208101905062000b69565b8381111562000b96576000848401525b50505050565b600062000bb362000bad8462000b30565b62000b11565b90508281526020810184848401111562000bd25762000bd162000a96565b5b62000bdf84828562000b66565b509392505050565b600082601f83011262000bff5762000bfe62000a91565b5b815162000c1184826020860162000b9c565b91505092915050565b60006020828403121562000c335762000c3262000a87565b5b600082015167ffffffffffffffff81111562000c545762000c5362000a8c565b5b62000c628482850162000be7565b91505092915050565b7f4e487b7100000000000000000000000000000000000000000000000000000000600052602260045260246000fd5b6000600282049050600182168062000cb357607f821691505b6020821081141562000cca5762000cc962000c6b565b5b50919050565b610cf98062000ce06000396000f3fe6080604052600436106100345760003560e01c80630d730acc14610039578063265aa62114610055578063d8cb55e314610097575b600080fd5b610053600480360381019061004e9190610763565b6100c2565b005b34801561006157600080fd5b5061007c60048036038101906100779190610763565b6102a5565b60405161008e96959493929190610879565b60405180910390f35b3480156100a357600080fd5b506100ac6104a9565b6040516100b99190610ab0565b60405180910390f35b60008082815481106100d7576100d6610ad2565b5b90600052602060002090600602019050806004015434101561012e576040517f08c379a000000000000000000000000000000000000000000000000000000000815260040161012590610b4d565b60405180910390fd5b6000828154811061014257610141610ad2565b5b906000526020600020906006020160050160009054906101000a900473ffffffffffffffffffffffffffffffffffffffff1673ffffffffffffffffffffffffffffffffffffffff163373ffffffffffffffffffffffffffffffffffffffff1614156101e2576040517f08c379a00000000000000000000000000000000000000000000000000000000081526004016101d990610bb9565b60405180910390fd5b33600083815481106101f7576101f6610ad2565b5b906000526020600020906006020160050160006101000a81548173ffffffffffffffffffffffffffffffffffffffff021916908373ffffffffffffffffffffffffffffffffffffffff16021790555060026000838154811061025c5761025b610ad2565b5b9060005260206000209060060201600401546102789190610c08565b6000838154811061028c5761028b610ad2565b5b9060005260206000209060060201600401819055505050565b600081815481106102b557600080fd5b90600052602060002090600602016000915090508060000154908060010180546102de90610c91565b80601f016020809104026020016040519081016040528092919081815260200182805461030a90610c91565b80156103575780601f1061032c57610100808354040283529160200191610357565b820191906000526020600020905b81548152906001019060200180831161033a57829003601f168201915b50505050509080600201805461036c90610c91565b80601f016020809104026020016040519081016040528092919081815260200182805461039890610c91565b80156103e55780601f106103ba576101008083540402835291602001916103e5565b820191906000526020600020905b8154815290600101906020018083116103c857829003601f168201915b5050505050908060030180546103fa90610c91565b80601f016020809104026020016040519081016040528092919081815260200182805461042690610c91565b80156104735780601f1061044857610100808354040283529160200191610473565b820191906000526020600020905b81548152906001019060200180831161045657829003601f168201915b5050505050908060040154908060050160009054906101000a900473ffffffffffffffffffffffffffffffffffffffff16905086565b60606000805480602002602001604051908101604052809291908181526020016000905b8282101561071f57838290600052602060002090600602016040518060c00160405290816000820154815260200160018201805461050a90610c91565b80601f016020809104026020016040519081016040528092919081815260200182805461053690610c91565b80156105835780601f1061055857610100808354040283529160200191610583565b820191906000526020600020905b81548152906001019060200180831161056657829003601f168201915b5050505050815260200160028201805461059c90610c91565b80601f01602080910402602001604051908101604052809291908181526020018280546105c890610c91565b80156106155780601f106105ea57610100808354040283529160200191610615565b820191906000526020600020905b8154815290600101906020018083116105f857829003601f168201915b5050505050815260200160038201805461062e90610c91565b80601f016020809104026020016040519081016040528092919081815260200182805461065a90610c91565b80156106a75780601f1061067c576101008083540402835291602001916106a7565b820191906000526020600020905b81548152906001019060200180831161068a57829003601f168201915b50505050508152602001600482015481526020016005820160009054906101000a900473ffffffffffffffffffffffffffffffffffffffff1673ffffffffffffffffffffffffffffffffffffffff1673ffffffffffffffffffffffffffffffffffffffff1681525050815260200190600101906104cd565b50505050905090565b600080fd5b6000819050919050565b6107408161072d565b811461074b57600080fd5b50565b60008135905061075d81610737565b92915050565b60006020828403121561077957610778610728565b5b60006107878482850161074e565b91505092915050565b6107998161072d565b82525050565b600081519050919050565b600082825260208201905092915050565b60005b838110156107d95780820151818401526020810190506107be565b838111156107e8576000848401525b50505050565b6000601f19601f8301169050919050565b600061080a8261079f565b61081481856107aa565b93506108248185602086016107bb565b61082d816107ee565b840191505092915050565b600073ffffffffffffffffffffffffffffffffffffffff82169050919050565b600061086382610838565b9050919050565b61087381610858565b82525050565b600060c08201905061088e6000830189610790565b81810360208301526108a081886107ff565b905081810360408301526108b481876107ff565b905081810360608301526108c881866107ff565b90506108d76080830185610790565b6108e460a083018461086a565b979650505050505050565b600081519050919050565b600082825260208201905092915050565b6000819050602082019050919050565b6109248161072d565b82525050565b600082825260208201905092915050565b60006109468261079f565b610950818561092a565b93506109608185602086016107bb565b610969816107ee565b840191505092915050565b61097d81610858565b82525050565b600060c08301600083015161099b600086018261091b565b50602083015184820360208601526109b3828261093b565b915050604083015184820360408601526109cd828261093b565b915050606083015184820360608601526109e7828261093b565b91505060808301516109fc608086018261091b565b5060a0830151610a0f60a0860182610974565b508091505092915050565b6000610a268383610983565b905092915050565b6000602082019050919050565b6000610a46826108ef565b610a5081856108fa565b935083602082028501610a628561090b565b8060005b85811015610a9e5784840389528151610a7f8582610a1a565b9450610a8a83610a2e565b925060208a01995050600181019050610a66565b50829750879550505050505092915050565b60006020820190508181036000830152610aca8184610a3b565b905092915050565b7f4e487b7100000000000000000000000000000000000000000000000000000000600052603260045260246000fd5b7f4e65656420746f20706179207570210000000000000000000000000000000000600082015250565b6000610b37600f836107aa565b9150610b4282610b01565b602082019050919050565b60006020820190508181036000830152610b6681610b2a565b9050919050565b7f596f7520616c7265616479206861766520697421000000000000000000000000600082015250565b6000610ba36014836107aa565b9150610bae82610b6d565b602082019050919050565b60006020820190508181036000830152610bd281610b96565b9050919050565b7f4e487b7100000000000000000000000000000000000000000000000000000000600052601160045260246000fd5b6000610c138261072d565b9150610c1e8361072d565b9250817fffffffffffffffffffffffffffffffffffffffffffffffffffffffffffffffff0483118215151615610c5757610c56610bd9565b5b828202905092915050565b7f4e487b7100000000000000000000000000000000000000000000000000000000600052602260045260246000fd5b60006002820490506001821680610ca957607f821691505b60208210811415610cbd57610cbc610c62565b5b5091905056fea26469706673582212205b22183efad738ed00d162c1674aca4d25efc9d8e9e8774f4816029c0f37040a64736f6c634300080900335468657265206973206120706c616e742073656564206f6e20697473206261636b2072696768742066726f6d2074686520646179207468697320506f6b656d6f6e20697320626f726e2e20546865207365656420736c6f776c792067726f7773206c6172676572497420686173206120707265666572656e636520666f7220686f74207468696e67732e205768656e206974207261696e732c20737465616d206973207361696420746f2073706f75742066726f6d2074686520746970206f6620697473207461696c2e546865206f6c64657220697420676574732c20746865206c6f6e6765722069742067726f77732e204174206e696768742c20697420777261707320697473206c6f6e6720626f64792061726f756e642074726565206272616e6368657320746f20726573745768656e20697420726574726163747320697473206c6f6e67206e65636b20696e746f20697473207368656c6c2c2069742073717569727473206f75742077617465722077697468207669676f726f757320666f72636568747470733a2f2f6173736574732e706f6b656d6f6e2e636f6d2f6173736574732f636d73322f696d672f706f6b656465782f66756c6c2f3032352e706e6750696b6163687520746861742063616e2067656e657261746520706f77657266756c20656c656374726963697479206861766520636865656b207361637320746861742061726520657874726120736f667420616e642073757065722073747265746368792e68747470733a2f2f6173736574732e706f6b656d6f6e2e636f6d2f6173736574732f636d73322f696d672f706f6b656465782f66756c6c2f3031362e706e6768747470733a2f2f6173736574732e706f6b656d6f6e2e636f6d2f6173736574732f636d73322f696d672f706f6b656465782f66756c6c2f3030312e706e675665727920646f63696c652e2049662061747461636b65642c2069742077696c6c206f6674656e206b69636b2075702073616e6420746f2070726f7465637420697473656c6620726174686572207468616e206669676874206261636b2e68747470733a2f2f6173736574732e706f6b656d6f6e2e636f6d2f6173736574732f636d73322f696d672f706f6b656465782f66756c6c2f3030372e706e6768747470733a2f2f6173736574732e706f6b656d6f6e2e636f6d2f6173736574732f636d73322f696d672f706f6b656465782f66756c6c2f3030342e706e6768747470733a2f2f6173736574732e706f6b656d6f6e2e636f6d2f6173736574732f636d73322f696d672f706f6b656465782f66756c6c2f3032332e706e67",
  "linkReferences": {},
  "deployedLinkReferences": {}
}