{
  "_format": "hh-sol-artifact-1",
  "contractName": "MyContract",
  "sourceName": "contracts/MyContract.sol",
  "abi": [
    {
      "inputs": [
        {
          "internalType": "string",
          "name": "_name",
          "type": "string"
        }
      ],
      "stateMutability": "nonpayable",
      "type": "constructor"
    },
    {
      "anonymous": false,
      "inputs": [
        {
          "indexed": true,
          "internalType": "address",
          "name": "_from",
          "type": "address"
        },
        {
          "indexed": true,
          "internalType": "string",
          "name": "_name",
          "type": "string"
        }
      ],
      "name": "ChangeName",
      "type": "event"
    },
    {
      "inputs": [
        {
          "internalType": "string",
          "name": "_name",
          "type": "string"
        }
      ],
      "name": "changeName",
      "outputs": [],
      "stateMutability": "nonpayable",
      "type": "function"
    },
    {
      "inputs": [],
      "name": "getName",
      "outputs": [
        {
          "internalType": "string",
          "name": "",
          "type": "string"
        }
      ],
      "stateMutability": "view",
      "type": "function"
    }
  ],
  "bytecode": "0x60806040523480156200001157600080fd5b50604051620008be380380620008be8339818101604052810190620000379190620002a4565b80600090805190602001906200004f92919062000057565b50506200035a565b828054620000659062000324565b90600052602060002090601f016020900481019282620000895760008555620000d5565b82601f10620000a457805160ff1916838001178555620000d5565b82800160010185558215620000d5579182015b82811115620000d4578251825591602001919060010190620000b7565b5b509050620000e49190620000e8565b5090565b5b8082111562000103576000816000905550600101620000e9565b5090565b6000604051905090565b600080fd5b600080fd5b600080fd5b600080fd5b6000601f19601f8301169050919050565b7f4e487b7100000000000000000000000000000000000000000000000000000000600052604160045260246000fd5b620001708262000125565b810181811067ffffffffffffffff8211171562000192576200019162000136565b5b80604052505050565b6000620001a762000107565b9050620001b5828262000165565b919050565b600067ffffffffffffffff821115620001d857620001d762000136565b5b620001e38262000125565b9050602081019050919050565b60005b8381101562000210578082015181840152602081019050620001f3565b8381111562000220576000848401525b50505050565b60006200023d6200023784620001ba565b6200019b565b9050828152602081018484840111156200025c576200025b62000120565b5b62000269848285620001f0565b509392505050565b600082601f8301126200028957620002886200011b565b5b81516200029b84826020860162000226565b91505092915050565b600060208284031215620002bd57620002bc62000111565b5b600082015167ffffffffffffffff811115620002de57620002dd62000116565b5b620002ec8482850162000271565b91505092915050565b7f4e487b7100000000000000000000000000000000000000000000000000000000600052602260045260246000fd5b600060028204905060018216806200033d57607f821691505b60208210811415620003545762000353620002f5565b5b50919050565b610554806200036a6000396000f3fe608060405234801561001057600080fd5b50600436106100365760003560e01c806317d7de7c1461003b5780635353a2d814610059575b600080fd5b610043610075565b60405161005091906102b6565b60405180910390f35b610073600480360381019061006e9190610421565b610107565b005b60606000805461008490610499565b80601f01602080910402602001604051908101604052809291908181526020018280546100b090610499565b80156100fd5780601f106100d2576101008083540402835291602001916100fd565b820191906000526020600020905b8154815290600101906020018083116100e057829003601f168201915b5050505050905090565b806000908051906020019061011d92919061017a565b508060405161012c9190610507565b60405180910390203373ffffffffffffffffffffffffffffffffffffffff167fbb65f02a08ca2759ab26ef9929bf648f890a58e115823859923e3a6d0c6dfca860405160405180910390a350565b82805461018690610499565b90600052602060002090601f0160209004810192826101a857600085556101ef565b82601f106101c157805160ff19168380011785556101ef565b828001600101855582156101ef579182015b828111156101ee5782518255916020019190600101906101d3565b5b5090506101fc9190610200565b5090565b5b80821115610219576000816000905550600101610201565b5090565b600081519050919050565b600082825260208201905092915050565b60005b8381101561025757808201518184015260208101905061023c565b83811115610266576000848401525b50505050565b6000601f19601f8301169050919050565b60006102888261021d565b6102928185610228565b93506102a2818560208601610239565b6102ab8161026c565b840191505092915050565b600060208201905081810360008301526102d0818461027d565b905092915050565b6000604051905090565b600080fd5b600080fd5b600080fd5b600080fd5b7f4e487b7100000000000000000000000000000000000000000000000000000000600052604160045260246000fd5b61032e8261026c565b810181811067ffffffffffffffff8211171561034d5761034c6102f6565b5b80604052505050565b60006103606102d8565b905061036c8282610325565b919050565b600067ffffffffffffffff82111561038c5761038b6102f6565b5b6103958261026c565b9050602081019050919050565b82818337600083830152505050565b60006103c46103bf84610371565b610356565b9050828152602081018484840111156103e0576103df6102f1565b5b6103eb8482856103a2565b509392505050565b600082601f830112610408576104076102ec565b5b81356104188482602086016103b1565b91505092915050565b600060208284031215610437576104366102e2565b5b600082013567ffffffffffffffff811115610455576104546102e7565b5b610461848285016103f3565b91505092915050565b7f4e487b7100000000000000000000000000000000000000000000000000000000600052602260045260246000fd5b600060028204905060018216806104b157607f821691505b602082108114156104c5576104c461046a565b5b50919050565b600081905092915050565b60006104e18261021d565b6104eb81856104cb565b93506104fb818560208601610239565b80840191505092915050565b600061051382846104d6565b91508190509291505056fea2646970667358221220c164ab2d62b4a378ff63ccb2530e1bc72a3c0b855346c9aec329a423359735b364736f6c63430008090033",
  "linkReferences": {},
  "deployedLinkReferences": {}
}