{
  "_format": "hh-sol-artifact-1",
  "contractName": "MyContract",
  "sourceName": "contracts/MyContract.sol",
  "abi": [
    {
      "inputs": [
        {
          "internalType": "string",
          "name": "_name",
          "type": "string"
        }
      ],
      "stateMutability": "nonpayable",
      "type": "constructor"
    },
    {
      "inputs": [],
      "name": "getNfts",
      "outputs": [
        {
          "components": [
            {
              "internalType": "uint256",
              "name": "id",
              "type": "uint256"
            },
            {
              "internalType": "string",
              "name": "name",
              "type": "string"
            },
            {
              "internalType": "string",
              "name": "desc",
              "type": "string"
            },
            {
              "internalType": "string",
              "name": "image",
              "type": "string"
            },
            {
              "internalType": "uint256",
              "name": "price",
              "type": "uint256"
            },
            {
              "internalType": "address",
              "name": "owner",
              "type": "address"
            }
          ],
          "internalType": "struct MyContract.Nft[]",
          "name": "",
          "type": "tuple[]"
        }
      ],
      "stateMutability": "view",
      "type": "function"
    },
    {
      "inputs": [
        {
          "internalType": "uint256",
          "name": "_id",
          "type": "uint256"
        }
      ],
      "name": "mintNft",
      "outputs": [],
      "stateMutability": "payable",
      "type": "function"
    },
    {
      "inputs": [
        {
          "internalType": "uint256",
          "name": "",
          "type": "uint256"
        }
      ],
      "name": "nfts",
      "outputs": [
        {
          "internalType": "uint256",
          "name": "id",
          "type": "uint256"
        },
        {
          "internalType": "string",
          "name": "name",
          "type": "string"
        },
        {
          "internalType": "string",
          "name": "desc",
          "type": "string"
        },
        {
          "internalType": "string",
          "name": "image",
          "type": "string"
        },
        {
          "internalType": "uint256",
          "name": "price",
          "type": "uint256"
        },
        {
          "internalType": "address",
          "name": "owner",
          "type": "address"
        }
      ],
      "stateMutability": "view",
      "type": "function"
    }
  ],
  "bytecode": "0x60806040523480156200001157600080fd5b5060405162001b9b38038062001b9b833981810160405281019062000037919062000c1c565b60006040518060c00160405280600081526020016040518060400160405280600981526020017f42756c626173617572000000000000000000000000000000000000000000000081525081526020016040518060a0016040528060678152602001620017d76067913981526020016040518060600160405280603f815260200162001a41603f91398152602001662386f26fc100008152602001600073ffffffffffffffffffffffffffffffffffffffff1681525090806001815401808255809150506001900390600052602060002090600602016000909190919091506000820151816000015560208201518160010190805190602001906200013d929190620009cf565b5060408201518160020190805190602001906200015c929190620009cf565b5060608201518160030190805190602001906200017b929190620009cf565b506080820151816004015560a08201518160050160006101000a81548173ffffffffffffffffffffffffffffffffffffffff021916908373ffffffffffffffffffffffffffffffffffffffff160217905550505060006040518060c00160405280600181526020016040518060400160405280600a81526020017f436861726d616e6465720000000000000000000000000000000000000000000081525081526020016040518060a00160405280606381526020016200183e6063913981526020016040518060600160405280603f815260200162001b1d603f9139815260200166470de4df8200008152602001600073ffffffffffffffffffffffffffffffffffffffff168152509080600181540180825580915050600190039060005260206000209060060201600090919091909150600082015181600001556020820151816001019080519060200190620002d5929190620009cf565b506040820151816002019080519060200190620002f4929190620009cf565b50606082015181600301908051906020019062000313929190620009cf565b506080820151816004015560a08201518160050160006101000a81548173ffffffffffffffffffffffffffffffffffffffff021916908373ffffffffffffffffffffffffffffffffffffffff160217905550505060006040518060c00160405280600281526020016040518060400160405280600881526020017f5371756972746c650000000000000000000000000000000000000000000000008152508152602001604051806080016040528060578152602001620019066057913981526020016040518060600160405280603f815260200162001ade603f91398152602001662386f26fc100008152602001600073ffffffffffffffffffffffffffffffffffffffff1681525090806001815401808255809150506001900390600052602060002090600602016000909190919091506000820151816000015560208201518160010190805190602001906200046d929190620009cf565b5060408201518160020190805190602001906200048c929190620009cf565b506060820151816003019080519060200190620004ab929190620009cf565b506080820151816004015560a08201518160050160006101000a81548173ffffffffffffffffffffffffffffffffffffffff021916908373ffffffffffffffffffffffffffffffffffffffff160217905550505060006040518060c00160405280600381526020016040518060400160405280600681526020017f506964676579000000000000000000000000000000000000000000000000000081525081526020016040518060800160405280605e815260200162001a80605e913981526020016040518060600160405280603f815260200162001a02603f91398152602001662386f26fc100008152602001600073ffffffffffffffffffffffffffffffffffffffff16815250908060018154018082558091505060019003906000526020600020906006020160009091909190915060008201518160000155602082015181600101908051906020019062000605929190620009cf565b50604082015181600201908051906020019062000624929190620009cf565b50606082015181600301908051906020019062000643929190620009cf565b506080820151816004015560a08201518160050160006101000a81548173ffffffffffffffffffffffffffffffffffffffff021916908373ffffffffffffffffffffffffffffffffffffffff160217905550505060006040518060c00160405280600481526020016040518060400160405280600581526020017f456b616e7300000000000000000000000000000000000000000000000000000081525081526020016040518060a0016040528060658152602001620018a16065913981526020016040518060600160405280603f815260200162001b5c603f91398152602001666a94d74f4300008152602001600073ffffffffffffffffffffffffffffffffffffffff1681525090806001815401808255809150506001900390600052602060002090600602016000909190919091506000820151816000015560208201518160010190805190602001906200079d929190620009cf565b506040820151816002019080519060200190620007bc929190620009cf565b506060820151816003019080519060200190620007db929190620009cf565b506080820151816004015560a08201518160050160006101000a81548173ffffffffffffffffffffffffffffffffffffffff021916908373ffffffffffffffffffffffffffffffffffffffff160217905550505060006040518060c00160405280600581526020016040518060400160405280600781526020017f50696b616368750000000000000000000000000000000000000000000000000081525081526020016040518060a00160405280606681526020016200199c6066913981526020016040518060600160405280603f81526020016200195d603f913981526020016706f05b59d3b200008152602001600073ffffffffffffffffffffffffffffffffffffffff16815250908060018154018082558091505060019003906000526020600020906006020160009091909190915060008201518160000155602082015181600101908051906020019062000936929190620009cf565b50604082015181600201908051906020019062000955929190620009cf565b50606082015181600301908051906020019062000974929190620009cf565b506080820151816004015560a08201518160050160006101000a81548173ffffffffffffffffffffffffffffffffffffffff021916908373ffffffffffffffffffffffffffffffffffffffff16021790555050505062000cd2565b828054620009dd9062000c9c565b90600052602060002090601f01602090048101928262000a01576000855562000a4d565b82601f1062000a1c57805160ff191683800117855562000a4d565b8280016001018555821562000a4d579182015b8281111562000a4c57825182559160200191906001019062000a2f565b5b50905062000a5c919062000a60565b5090565b5b8082111562000a7b57600081600090555060010162000a61565b5090565b6000604051905090565b600080fd5b600080fd5b600080fd5b600080fd5b6000601f19601f8301169050919050565b7f4e487b7100000000000000000000000000000000000000000000000000000000600052604160045260246000fd5b62000ae88262000a9d565b810181811067ffffffffffffffff8211171562000b0a5762000b0962000aae565b5b80604052505050565b600062000b1f62000a7f565b905062000b2d828262000add565b919050565b600067ffffffffffffffff82111562000b505762000b4f62000aae565b5b62000b5b8262000a9d565b9050602081019050919050565b60005b8381101562000b8857808201518184015260208101905062000b6b565b8381111562000b98576000848401525b50505050565b600062000bb562000baf8462000b32565b62000b13565b90508281526020810184848401111562000bd45762000bd362000a98565b5b62000be184828562000b68565b509392505050565b600082601f83011262000c015762000c0062000a93565b5b815162000c1384826020860162000b9e565b91505092915050565b60006020828403121562000c355762000c3462000a89565b5b600082015167ffffffffffffffff81111562000c565762000c5562000a8e565b5b62000c648482850162000be9565b91505092915050565b7f4e487b7100000000000000000000000000000000000000000000000000000000600052602260045260246000fd5b6000600282049050600182168062000cb557607f821691505b6020821081141562000ccc5762000ccb62000c6d565b5b50919050565b610af58062000ce26000396000f3fe6080604052600436106100345760003560e01c80630d730acc14610039578063265aa62114610055578063d8cb55e314610097575b600080fd5b610053600480360381019061004e9190610654565b6100c2565b005b34801561006157600080fd5b5061007c60048036038101906100779190610654565b610196565b60405161008e9695949392919061076a565b60405180910390f35b3480156100a357600080fd5b506100ac61039a565b6040516100b991906109a1565b60405180910390f35b60008082815481106100d7576100d66109c3565b5b90600052602060002090600602019050806004015434101561012e576040517f08c379a000000000000000000000000000000000000000000000000000000000815260040161012590610a3e565b60405180910390fd5b3360008381548110610143576101426109c3565b5b906000526020600020906006020160050160006101000a81548173ffffffffffffffffffffffffffffffffffffffff021916908373ffffffffffffffffffffffffffffffffffffffff1602179055505050565b600081815481106101a657600080fd5b90600052602060002090600602016000915090508060000154908060010180546101cf90610a8d565b80601f01602080910402602001604051908101604052809291908181526020018280546101fb90610a8d565b80156102485780601f1061021d57610100808354040283529160200191610248565b820191906000526020600020905b81548152906001019060200180831161022b57829003601f168201915b50505050509080600201805461025d90610a8d565b80601f016020809104026020016040519081016040528092919081815260200182805461028990610a8d565b80156102d65780601f106102ab576101008083540402835291602001916102d6565b820191906000526020600020905b8154815290600101906020018083116102b957829003601f168201915b5050505050908060030180546102eb90610a8d565b80601f016020809104026020016040519081016040528092919081815260200182805461031790610a8d565b80156103645780601f1061033957610100808354040283529160200191610364565b820191906000526020600020905b81548152906001019060200180831161034757829003601f168201915b5050505050908060040154908060050160009054906101000a900473ffffffffffffffffffffffffffffffffffffffff16905086565b60606000805480602002602001604051908101604052809291908181526020016000905b8282101561061057838290600052602060002090600602016040518060c0016040529081600082015481526020016001820180546103fb90610a8d565b80601f016020809104026020016040519081016040528092919081815260200182805461042790610a8d565b80156104745780601f1061044957610100808354040283529160200191610474565b820191906000526020600020905b81548152906001019060200180831161045757829003601f168201915b5050505050815260200160028201805461048d90610a8d565b80601f01602080910402602001604051908101604052809291908181526020018280546104b990610a8d565b80156105065780601f106104db57610100808354040283529160200191610506565b820191906000526020600020905b8154815290600101906020018083116104e957829003601f168201915b5050505050815260200160038201805461051f90610a8d565b80601f016020809104026020016040519081016040528092919081815260200182805461054b90610a8d565b80156105985780601f1061056d57610100808354040283529160200191610598565b820191906000526020600020905b81548152906001019060200180831161057b57829003601f168201915b50505050508152602001600482015481526020016005820160009054906101000a900473ffffffffffffffffffffffffffffffffffffffff1673ffffffffffffffffffffffffffffffffffffffff1673ffffffffffffffffffffffffffffffffffffffff1681525050815260200190600101906103be565b50505050905090565b600080fd5b6000819050919050565b6106318161061e565b811461063c57600080fd5b50565b60008135905061064e81610628565b92915050565b60006020828403121561066a57610669610619565b5b60006106788482850161063f565b91505092915050565b61068a8161061e565b82525050565b600081519050919050565b600082825260208201905092915050565b60005b838110156106ca5780820151818401526020810190506106af565b838111156106d9576000848401525b50505050565b6000601f19601f8301169050919050565b60006106fb82610690565b610705818561069b565b93506107158185602086016106ac565b61071e816106df565b840191505092915050565b600073ffffffffffffffffffffffffffffffffffffffff82169050919050565b600061075482610729565b9050919050565b61076481610749565b82525050565b600060c08201905061077f6000830189610681565b818103602083015261079181886106f0565b905081810360408301526107a581876106f0565b905081810360608301526107b981866106f0565b90506107c86080830185610681565b6107d560a083018461075b565b979650505050505050565b600081519050919050565b600082825260208201905092915050565b6000819050602082019050919050565b6108158161061e565b82525050565b600082825260208201905092915050565b600061083782610690565b610841818561081b565b93506108518185602086016106ac565b61085a816106df565b840191505092915050565b61086e81610749565b82525050565b600060c08301600083015161088c600086018261080c565b50602083015184820360208601526108a4828261082c565b915050604083015184820360408601526108be828261082c565b915050606083015184820360608601526108d8828261082c565b91505060808301516108ed608086018261080c565b5060a083015161090060a0860182610865565b508091505092915050565b60006109178383610874565b905092915050565b6000602082019050919050565b6000610937826107e0565b61094181856107eb565b935083602082028501610953856107fc565b8060005b8581101561098f5784840389528151610970858261090b565b945061097b8361091f565b925060208a01995050600181019050610957565b50829750879550505050505092915050565b600060208201905081810360008301526109bb818461092c565b905092915050565b7f4e487b7100000000000000000000000000000000000000000000000000000000600052603260045260246000fd5b7f4e65656420746f20706179207570210000000000000000000000000000000000600082015250565b6000610a28600f8361069b565b9150610a33826109f2565b602082019050919050565b60006020820190508181036000830152610a5781610a1b565b9050919050565b7f4e487b7100000000000000000000000000000000000000000000000000000000600052602260045260246000fd5b60006002820490506001821680610aa557607f821691505b60208210811415610ab957610ab8610a5e565b5b5091905056fea2646970667358221220f47239f4068159c23cd90b36cf6352c612c64a3dc8bd666d20782da6326bf66d64736f6c634300080900335468657265206973206120706c616e742073656564206f6e20697473206261636b2072696768742066726f6d2074686520646179207468697320506f6b656d6f6e20697320626f726e2e20546865207365656420736c6f776c792067726f7773206c6172676572497420686173206120707265666572656e636520666f7220686f74207468696e67732e205768656e206974207261696e732c20737465616d206973207361696420746f2073706f75742066726f6d2074686520746970206f6620697473207461696c2e546865206f6c64657220697420676574732c20746865206c6f6e6765722069742067726f77732e204174206e696768742c20697420777261707320697473206c6f6e6720626f64792061726f756e642074726565206272616e6368657320746f20726573745768656e20697420726574726163747320697473206c6f6e67206e65636b20696e746f20697473207368656c6c2c2069742073717569727473206f75742077617465722077697468207669676f726f757320666f72636568747470733a2f2f6173736574732e706f6b656d6f6e2e636f6d2f6173736574732f636d73322f696d672f706f6b656465782f66756c6c2f3032352e706e6750696b6163687520746861742063616e2067656e657261746520706f77657266756c20656c656374726963697479206861766520636865656b207361637320746861742061726520657874726120736f667420616e642073757065722073747265746368792e68747470733a2f2f6173736574732e706f6b656d6f6e2e636f6d2f6173736574732f636d73322f696d672f706f6b656465782f66756c6c2f3031362e706e6768747470733a2f2f6173736574732e706f6b656d6f6e2e636f6d2f6173736574732f636d73322f696d672f706f6b656465782f66756c6c2f3030312e706e675665727920646f63696c652e2049662061747461636b65642c2069742077696c6c206f6674656e206b69636b2075702073616e6420746f2070726f7465637420697473656c6620726174686572207468616e206669676874206261636b2e68747470733a2f2f6173736574732e706f6b656d6f6e2e636f6d2f6173736574732f636d73322f696d672f706f6b656465782f66756c6c2f3030372e706e6768747470733a2f2f6173736574732e706f6b656d6f6e2e636f6d2f6173736574732f636d73322f696d672f706f6b656465782f66756c6c2f3030342e706e6768747470733a2f2f6173736574732e706f6b656d6f6e2e636f6d2f6173736574732f636d73322f696d672f706f6b656465782f66756c6c2f3032332e706e67",
  "linkReferences": {},
  "deployedLinkReferences": {}
}